{
  "address": "0x783D14DEC137B4b477CdD225c4033942DCC9f6c9",
  "abi": [
    {
      "inputs": [
        {
          "internalType": "address",
          "name": "initialOwner",
          "type": "address"
        },
        {
          "internalType": "uint256",
          "name": "biddingStartTime",
          "type": "uint256"
        },
        {
          "internalType": "uint256",
          "name": "biddingEndTime",
          "type": "uint256"
        },
        {
          "internalType": "uint256",
          "name": "claimingEndTime",
          "type": "uint256"
        },
        {
          "internalType": "uint256",
          "name": "auctionWinnersCount",
          "type": "uint256"
        },
        {
          "internalType": "uint256",
          "name": "raffleWinnersCount",
          "type": "uint256"
        },
        {
          "internalType": "uint256",
          "name": "reservePrice",
          "type": "uint256"
        },
        {
          "internalType": "uint256",
          "name": "minBidIncrement",
          "type": "uint256"
        },
        {
          "internalType": "bytes32",
          "name": "discountRoot",
          "type": "bytes32"
        }
      ],
      "stateMutability": "nonpayable",
      "type": "constructor"
    },
    {
      "anonymous": false,
      "inputs": [
        {
          "indexed": false,
          "internalType": "uint256",
          "name": "bidderID",
          "type": "uint256"
        }
      ],
      "name": "NewAuctionWinner",
      "type": "event"
    },
    {
      "anonymous": false,
      "inputs": [
        {
          "indexed": false,
          "internalType": "address",
          "name": "bidder",
          "type": "address"
        },
        {
          "indexed": false,
          "internalType": "uint256",
          "name": "bidderID",
          "type": "uint256"
        },
        {
          "indexed": false,
          "internalType": "uint256",
          "name": "bidAmount",
          "type": "uint256"
        }
      ],
      "name": "NewBid",
      "type": "event"
    },
    {
      "anonymous": false,
      "inputs": [
        {
          "indexed": false,
          "internalType": "uint256",
          "name": "bidderID",
          "type": "uint256"
        }
      ],
      "name": "NewGoldenTicketWinner",
      "type": "event"
    },
    {
      "anonymous": false,
      "inputs": [
        {
          "indexed": false,
          "internalType": "uint256",
          "name": "bidderID",
          "type": "uint256"
        }
      ],
      "name": "NewRaffleWinner",
      "type": "event"
    },
    {
      "anonymous": false,
      "inputs": [
        {
          "indexed": true,
          "internalType": "address",
          "name": "previousOwner",
          "type": "address"
        },
        {
          "indexed": true,
          "internalType": "address",
          "name": "newOwner",
          "type": "address"
        }
      ],
      "name": "OwnershipTransferred",
      "type": "event"
    },
    {
      "stateMutability": "payable",
      "type": "fallback"
    },
    {
      "inputs": [],
      "name": "auctionWinnersCount",
      "outputs": [
        {
          "internalType": "uint256",
          "name": "",
          "type": "uint256"
        }
      ],
      "stateMutability": "view",
      "type": "function"
    },
    {
      "inputs": [],
      "name": "bid",
      "outputs": [],
      "stateMutability": "payable",
      "type": "function"
    },
    {
      "inputs": [
        {
          "internalType": "uint256",
          "name": "discountPercentage",
          "type": "uint256"
        },
        {
          "internalType": "bytes32[]",
          "name": "proof",
          "type": "bytes32[]"
        }
      ],
      "name": "bidWithDiscount",
      "outputs": [],
      "stateMutability": "payable",
      "type": "function"
    },
    {
      "inputs": [],
      "name": "biddingEndTime",
      "outputs": [
        {
          "internalType": "uint256",
          "name": "",
          "type": "uint256"
        }
      ],
      "stateMutability": "view",
      "type": "function"
    },
    {
      "inputs": [],
      "name": "biddingStartTime",
      "outputs": [
        {
          "internalType": "uint256",
          "name": "",
          "type": "uint256"
        }
      ],
      "stateMutability": "view",
      "type": "function"
    },
    {
      "inputs": [
        {
          "internalType": "uint256",
          "name": "bidderID",
          "type": "uint256"
        }
      ],
      "name": "claim",
      "outputs": [],
      "stateMutability": "nonpayable",
      "type": "function"
    },
    {
      "inputs": [
        {
          "internalType": "uint256",
          "name": "bidsCount",
          "type": "uint256"
        }
      ],
      "name": "claimFees",
      "outputs": [],
      "stateMutability": "nonpayable",
      "type": "function"
    },
    {
      "inputs": [],
      "name": "claimProceeds",
      "outputs": [],
      "stateMutability": "nonpayable",
      "type": "function"
    },
    {
      "inputs": [],
      "name": "claimingEndTime",
      "outputs": [
        {
          "internalType": "uint256",
          "name": "",
          "type": "uint256"
        }
      ],
      "stateMutability": "view",
      "type": "function"
    },
    {
      "inputs": [],
      "name": "discountRoot",
      "outputs": [
        {
          "internalType": "bytes32",
          "name": "",
          "type": "bytes32"
        }
      ],
      "stateMutability": "view",
      "type": "function"
    },
    {
      "inputs": [],
      "name": "getAuctionWinners",
      "outputs": [
        {
          "internalType": "uint256[]",
          "name": "",
          "type": "uint256[]"
        }
      ],
      "stateMutability": "view",
      "type": "function"
    },
    {
      "inputs": [
        {
          "internalType": "address",
          "name": "bidder",
          "type": "address"
        }
      ],
      "name": "getBid",
      "outputs": [
        {
          "components": [
            {
              "internalType": "uint256",
              "name": "bidderID",
              "type": "uint256"
            },
            {
              "internalType": "uint256",
              "name": "amount",
              "type": "uint256"
            },
            {
              "internalType": "uint256",
              "name": "discount",
              "type": "uint256"
            },
            {
              "internalType": "enum BidModel.WinType",
              "name": "winType",
              "type": "uint8"
            },
            {
              "internalType": "bool",
              "name": "claimed",
              "type": "bool"
            }
          ],
          "internalType": "struct BidModel.Bid",
          "name": "",
          "type": "tuple"
        }
      ],
      "stateMutability": "view",
      "type": "function"
    },
    {
      "inputs": [
        {
          "internalType": "uint256",
          "name": "bidderID",
          "type": "uint256"
        }
      ],
      "name": "getBidByID",
      "outputs": [
        {
          "components": [
            {
              "internalType": "uint256",
              "name": "bidderID",
              "type": "uint256"
            },
            {
              "internalType": "uint256",
              "name": "amount",
              "type": "uint256"
            },
            {
              "internalType": "uint256",
              "name": "discount",
              "type": "uint256"
            },
            {
              "internalType": "enum BidModel.WinType",
              "name": "winType",
              "type": "uint8"
            },
            {
              "internalType": "bool",
              "name": "claimed",
              "type": "bool"
            }
          ],
          "internalType": "struct BidModel.Bid",
          "name": "",
          "type": "tuple"
        }
      ],
      "stateMutability": "view",
      "type": "function"
    },
    {
      "inputs": [
        {
          "internalType": "uint256",
          "name": "bidderID",
          "type": "uint256"
        }
      ],
      "name": "getBidWithAddress",
      "outputs": [
        {
          "components": [
            {
              "internalType": "address",
              "name": "bidder",
              "type": "address"
            },
            {
              "components": [
                {
                  "internalType": "uint256",
                  "name": "bidderID",
                  "type": "uint256"
                },
                {
                  "internalType": "uint256",
                  "name": "amount",
                  "type": "uint256"
                },
                {
                  "internalType": "uint256",
                  "name": "discount",
                  "type": "uint256"
                },
                {
                  "internalType": "enum BidModel.WinType",
                  "name": "winType",
                  "type": "uint8"
                },
                {
                  "internalType": "bool",
                  "name": "claimed",
                  "type": "bool"
                }
              ],
              "internalType": "struct BidModel.Bid",
              "name": "bid",
              "type": "tuple"
            }
          ],
          "internalType": "struct BidModel.BidWithAddress",
          "name": "",
          "type": "tuple"
        }
      ],
      "stateMutability": "view",
      "type": "function"
    },
    {
      "inputs": [
        {
          "internalType": "uint256",
          "name": "bidderID",
          "type": "uint256"
        }
      ],
      "name": "getBidderAddress",
      "outputs": [
        {
          "internalType": "address payable",
          "name": "",
          "type": "address"
        }
      ],
      "stateMutability": "view",
      "type": "function"
    },
    {
      "inputs": [],
      "name": "getBiddersCount",
      "outputs": [
        {
          "internalType": "uint256",
          "name": "",
          "type": "uint256"
        }
      ],
      "stateMutability": "view",
      "type": "function"
    },
    {
      "inputs": [],
      "name": "getBidsWithAddresses",
      "outputs": [
        {
          "components": [
            {
              "internalType": "address",
              "name": "bidder",
              "type": "address"
            },
            {
              "components": [
                {
                  "internalType": "uint256",
                  "name": "bidderID",
                  "type": "uint256"
                },
                {
                  "internalType": "uint256",
                  "name": "amount",
                  "type": "uint256"
                },
                {
                  "internalType": "uint256",
                  "name": "discount",
                  "type": "uint256"
                },
                {
                  "internalType": "enum BidModel.WinType",
                  "name": "winType",
                  "type": "uint8"
                },
                {
                  "internalType": "bool",
                  "name": "claimed",
                  "type": "bool"
                }
              ],
              "internalType": "struct BidModel.Bid",
              "name": "bid",
              "type": "tuple"
            }
          ],
          "internalType": "struct BidModel.BidWithAddress[]",
          "name": "",
          "type": "tuple[]"
        }
      ],
      "stateMutability": "view",
      "type": "function"
    },
    {
      "inputs": [],
      "name": "getRaffleParticipants",
      "outputs": [
        {
          "internalType": "uint256[]",
          "name": "",
          "type": "uint256[]"
        }
      ],
      "stateMutability": "view",
      "type": "function"
    },
    {
      "inputs": [],
      "name": "getRaffleWinners",
      "outputs": [
        {
          "internalType": "uint256[]",
          "name": "",
          "type": "uint256[]"
        }
      ],
      "stateMutability": "view",
      "type": "function"
    },
    {
      "inputs": [],
      "name": "getState",
      "outputs": [
        {
          "internalType": "enum StateModel.State",
          "name": "",
          "type": "uint8"
        }
      ],
      "stateMutability": "view",
      "type": "function"
    },
    {
      "inputs": [],
      "name": "minBidIncrement",
      "outputs": [
        {
          "internalType": "uint256",
          "name": "",
          "type": "uint256"
        }
      ],
      "stateMutability": "view",
      "type": "function"
    },
    {
      "inputs": [],
      "name": "owner",
      "outputs": [
        {
          "internalType": "address",
          "name": "",
          "type": "address"
        }
      ],
      "stateMutability": "view",
      "type": "function"
    },
    {
      "inputs": [],
      "name": "raffleWinnersCount",
      "outputs": [
        {
          "internalType": "uint256",
          "name": "",
          "type": "uint256"
        }
      ],
      "stateMutability": "view",
      "type": "function"
    },
    {
      "inputs": [],
      "name": "renounceOwnership",
      "outputs": [],
      "stateMutability": "nonpayable",
      "type": "function"
    },
    {
      "inputs": [
        {
          "internalType": "address",
          "name": "tokenAddress",
          "type": "address"
        }
      ],
      "name": "rescueTokens",
      "outputs": [],
      "stateMutability": "nonpayable",
      "type": "function"
    },
    {
      "inputs": [],
      "name": "reservePrice",
      "outputs": [
        {
          "internalType": "uint256",
          "name": "",
          "type": "uint256"
        }
      ],
      "stateMutability": "view",
      "type": "function"
    },
    {
      "inputs": [],
      "name": "settleAuction",
      "outputs": [],
      "stateMutability": "nonpayable",
      "type": "function"
    },
    {
      "inputs": [],
      "name": "settleRaffle",
      "outputs": [],
      "stateMutability": "nonpayable",
      "type": "function"
    },
    {
      "inputs": [
        {
          "internalType": "address",
          "name": "newOwner",
          "type": "address"
        }
      ],
      "name": "transferOwnership",
      "outputs": [],
      "stateMutability": "nonpayable",
      "type": "function"
    },
    {
      "inputs": [],
      "name": "withdrawUnclaimedFunds",
      "outputs": [],
      "stateMutability": "nonpayable",
      "type": "function"
    },
    {
      "stateMutability": "payable",
      "type": "receive"
    }
  ],
  "transactionHash": "0x67217803b4b640f497d042883977d7794a1d4604eedd93711740f223eefd3c59",
  "args": [
    "0x472Afd5a5303ac2799475687e943bbA72846BD6b",
    1676984400,
    1676989800,
    1676997000,
    10,
    80,
    "10000000000000000",
    "1000000000000000",
    "0x0000000000000000000000000000000000000000000000000000000000000000"
  ],
  "numDeployments": 2,
  "bytecode": "0x61018060405260016003556000196006556007805460ff191690553480156200002757600080fd5b5060405162004372380380620043728339810160408190526200004a9162000506565b87878787878787876200005d33620003e5565b60008511620000d95760405162461bcd60e51b815260206004820152603460248201527f436f6e6669673a2061756374696f6e2077696e6e65727320636f756e74206d7560448201527f73742062652067726561746572207468616e203000000000000000000000000060648201526084015b60405180910390fd5b60008411620001515760405162461bcd60e51b815260206004820152603360248201527f436f6e6669673a20726166666c652077696e6e65727320636f756e74206d757360448201527f742062652067726561746572207468616e2030000000000000000000000000006064820152608401620000d0565b6200016060206101006200059e565b6200016c9085620005b5565b15620001c75760405162461bcd60e51b8152602060048201526024808201527f436f6e6669673a20696e76616c696420726166666c652077696e6e65727320636044820152631bdd5b9d60e21b6064820152608401620000d0565b8688106200023e5760405162461bcd60e51b815260206004820152603a60248201527f436f6e6669673a2062696464696e672073746172742074696d65206d7573742060448201527f6265206265666f72652062696464696e6720656e642074696d650000000000006064820152608401620000d0565b858710620002b55760405162461bcd60e51b815260206004820152603960248201527f436f6e6669673a2062696464696e6720656e642074696d65206d75737420626560448201527f206265666f726520636c61696d696e6720656e642074696d65000000000000006064820152608401620000d0565b600083116200031c5760405162461bcd60e51b815260206004820152602c60248201527f436f6e6669673a2072657365727665207072696365206d75737420626520677260448201526b06561746572207468616e20360a41b6064820152608401620000d0565b60008211620003875760405162461bcd60e51b815260206004820152603060248201527f436f6e6669673a206d696e2062696420696e6372656d656e74206d757374206260448201526f0652067726561746572207468616e20360841b6064820152608401620000d0565b60809790975260a09590955260c09390935260e091909152610100526101205261014052610160526001600160a01b0389163314620003d657620003d6896200043560201b620022d01760201c565b505050505050505050620005cc565b600080546001600160a01b038381166001600160a01b0319831681178455604051919092169283917f8be0079c531659141344cd1fd0a4f28419497f9722a3daafe3b4186f6b6457e09190a35050565b6000546001600160a01b03163314620004915760405162461bcd60e51b815260206004820181905260248201527f4f776e61626c653a2063616c6c6572206973206e6f7420746865206f776e65726044820152606401620000d0565b6001600160a01b038116620004f85760405162461bcd60e51b815260206004820152602660248201527f4f776e61626c653a206e6577206f776e657220697320746865207a65726f206160448201526564647265737360d01b6064820152608401620000d0565b6200050381620003e5565b50565b60008060008060008060008060006101208a8c0312156200052657600080fd5b89516001600160a01b03811681146200053e57600080fd5b8099505060208a0151975060408a0151965060608a0151955060808a0151945060a08a0151935060c08a0151925060e08a015191506101008a015190509295985092959850929598565b634e487b7160e01b600052601260045260246000fd5b600082620005b057620005b062000588565b500490565b600082620005c757620005c762000588565b500690565b60805160a05160c05160e05161010051610120516101405161016051613cd76200069b600039600081816103360152611b2301526000818161041b01526125a60152600081816106d201528181610e220152818161130a01528181611bda015261247201526000818161046e015281816112ca0152818161156c0152611db2015260008181610583015281816115a701528181612d690152612e0b01526000818161068a01526108fe01526000818161037a01526109750152600081816104a101526109a20152613cd76000f3fe6080604052600436106101d05760003560e01c80638da5cb5b116100f7578063b70632b611610095578063d30d155511610064578063d30d1555146106ae578063db2e1eed146106c3578063e4515344146106f6578063f2fde38b146107235761026e565b8063b70632b614610619578063c8b342ab1461062e578063c8feb1fd1461065b578063cba9794a1461067b5761026e565b8063ab72bf32116100d1578063ab72bf32146105bc578063ac68a748146105d1578063b0ba4a31146105f1578063b5f5d245146106045761026e565b80638da5cb5b14610549578063953c519414610574578063a4d0a17e146105a75761026e565b8063335b115e1161016f5780635fa382801161013e5780635fa38280146104c5578063715018a61461050a5780637bea1a0a1461051f5780638c3b0ca8146105345761026e565b8063335b115e1461040c578063379607f51461043f5780633aa2aaa01461045f578063553fc574146104925761026e565b80631865c57d116101ab5780631865c57d1461039e5780631998aeef146103c05780631af37971146103c857806328314944146103ea5761026e565b8062ae3bf8146103025780630b2b5837146103245780631022eccb1461036b5761026e565b3661026e5760405162461bcd60e51b815260206004820152604260248201527f41756374696f6e526166666c653a20636f6e747261637420616363657074732060448201527f6574686572207472616e7366657273206f6e6c7920627920626964206d65746860648201527f6f64000000000000000000000000000000000000000000000000000000000000608482015260a4015b60405180910390fd5b60405162461bcd60e51b815260206004820152604260248201527f41756374696f6e526166666c653a20636f6e747261637420616363657074732060448201527f6574686572207472616e7366657273206f6e6c7920627920626964206d65746860648201527f6f64000000000000000000000000000000000000000000000000000000000000608482015260a401610265565b34801561030e57600080fd5b5061032261031d366004613753565b610743565b005b34801561033057600080fd5b506103587f000000000000000000000000000000000000000000000000000000000000000081565b6040519081526020015b60405180910390f35b34801561037757600080fd5b507f0000000000000000000000000000000000000000000000000000000000000000610358565b3480156103aa57600080fd5b506103b36108fa565b60405161036291906137b8565b6103226109d3565b3480156103d457600080fd5b506103dd610ae2565b60405161036291906137d2565b3480156103f657600080fd5b506103ff610b3a565b6040516103629190613881565b34801561041857600080fd5b507f0000000000000000000000000000000000000000000000000000000000000000610358565b34801561044b57600080fd5b5061032261045a3660046138c3565b610bf7565b34801561046b57600080fd5b507f0000000000000000000000000000000000000000000000000000000000000000610358565b34801561049e57600080fd5b507f0000000000000000000000000000000000000000000000000000000000000000610358565b3480156104d157600080fd5b506104e56104e03660046138c3565b610f1b565b60405173ffffffffffffffffffffffffffffffffffffffff9091168152602001610362565b34801561051657600080fd5b50610322610fb9565b34801561052b57600080fd5b506103dd61102c565b34801561054057600080fd5b50610322611082565b34801561055557600080fd5b5060005473ffffffffffffffffffffffffffffffffffffffff166104e5565b34801561058057600080fd5b507f0000000000000000000000000000000000000000000000000000000000000000610358565b3480156105b357600080fd5b5061032261143d565b3480156105c857600080fd5b50610358611674565b3480156105dd57600080fd5b506103226105ec3660046138c3565b61168a565b6103226105ff36600461390b565b611974565b34801561061057600080fd5b506103dd611c2c565b34801561062557600080fd5b50610322611c82565b34801561063a57600080fd5b5061064e610649366004613753565b611ef7565b60405161036291906139f3565b34801561066757600080fd5b5061064e6106763660046138c3565b61200d565b34801561068757600080fd5b507f0000000000000000000000000000000000000000000000000000000000000000610358565b3480156106ba57600080fd5b506103226120ae565b3480156106cf57600080fd5b507f0000000000000000000000000000000000000000000000000000000000000000610358565b34801561070257600080fd5b506107166107113660046138c3565b612209565b6040516103629190613a01565b34801561072f57600080fd5b5061032261073e366004613753565b6122d0565b60005473ffffffffffffffffffffffffffffffffffffffff1633146107aa5760405162461bcd60e51b815260206004820181905260248201527f4f776e61626c653a2063616c6c6572206973206e6f7420746865206f776e65726044820152606401610265565b6040517f70a08231000000000000000000000000000000000000000000000000000000008152306004820152819060009073ffffffffffffffffffffffffffffffffffffffff8316906370a0823190602401602060405180830381865afa158015610819573d6000803e3d6000fd5b505050506040513d601f19601f8201168201806040525081019061083d9190613a0f565b9050600081116108b55760405162461bcd60e51b815260206004820152602a60248201527f41756374696f6e526166666c653a206e6f20746f6b656e7320666f722067697660448201527f656e2061646472657373000000000000000000000000000000000000000000006064820152608401610265565b6108f56108d760005473ffffffffffffffffffffffffffffffffffffffff1690565b73ffffffffffffffffffffffffffffffffffffffff841690836123c9565b505050565b60007f000000000000000000000000000000000000000000000000000000000000000042106109295750600590565b600260075460ff16600281111561094257610942613789565b141561094e5750600490565b600160075460ff16600281111561096757610967613789565b14156109735750600390565b7f000000000000000000000000000000000000000000000000000000000000000042106109a05750600290565b7f000000000000000000000000000000000000000000000000000000000000000042106109cd5750600190565b50600090565b333214610a485760405162461bcd60e51b815260206004820152603260248201527f41756374696f6e526166666c653a20696e7465726e616c207472616e7361637460448201527f696f6e732061726520666f7262696464656e00000000000000000000000000006064820152608401610265565b600180610a536108fa565b6005811115610a6457610a64613789565b14610ad75760405162461bcd60e51b815260206004820152602260248201527f41756374696f6e526166666c653a20697320696e20696e76616c69642073746160448201527f74650000000000000000000000000000000000000000000000000000000000006064820152608401610265565b610adf612456565b50565b60606008805480602002602001604051908101604052809291908181526020018280548015610b3057602002820191906000526020600020905b815481526020019060010190808311610b1c575b5050505050905090565b60606000610b46611674565b905060008167ffffffffffffffff811115610b6357610b636138dc565b604051908082528060200260200182016040528015610b9c57816020015b610b896136a7565b815260200190600190039081610b815790505b50905060015b828111610bf0576000610bb482612209565b90508083610bc3600185613a57565b81518110610bd357610bd3613a6e565b60200260200101819052505080610be990613a9d565b9050610ba2565b5092915050565b600480610c026108fa565b6005811115610c1357610c13613789565b14610c865760405162461bcd60e51b815260206004820152602260248201527f41756374696f6e526166666c653a20697320696e20696e76616c69642073746160448201527f74650000000000000000000000000000000000000000000000000000000000006064820152608401610265565b6000610c9183610f1b565b73ffffffffffffffffffffffffffffffffffffffff81166000908152600160205260409020600381015491925090610100900460ff1615610d3a5760405162461bcd60e51b815260206004820152602e60248201527f41756374696f6e526166666c653a2066756e6473206861766520616c7265616460448201527f79206265656e20636c61696d65640000000000000000000000000000000000006064820152608401610265565b600260038083015460ff1690811115610d5557610d55613789565b1415610dc95760405162461bcd60e51b815260206004820152603160248201527f41756374696f6e526166666c653a2061756374696f6e2077696e6e657273206360448201527f616e6e6f7420636c61696d2066756e64730000000000000000000000000000006064820152608401610265565b600381810180546101007fffffffffffffffffffffffffffffffffffffffffffffffffffffffffffff00ff8216179091556000919060ff1681811115610e1157610e11613789565b1415610e5c576002820154610e46907f0000000000000000000000000000000000000000000000000000000000000000613a57565b8260010154610e559190613a57565b9050610ec9565b600160038084015460ff1690811115610e7757610e77613789565b1415610e8857506001810154610ec9565b600060038084015460ff1690811115610ea357610ea3613789565b1415610ec957606482600101546062610ebc9190613ad6565b610ec69190613b42565b90505b8015610f145760405173ffffffffffffffffffffffffffffffffffffffff84169082156108fc029083906000818181858888f19350505050158015610f12573d6000803e3d6000fd5b505b5050505050565b60008181526002602052604081205473ffffffffffffffffffffffffffffffffffffffff1680610fb35760405162461bcd60e51b815260206004820152603260248201527f41756374696f6e526166666c653a20626964646572207769746820676976656e60448201527f20494420646f6573206e6f7420657869737400000000000000000000000000006064820152608401610265565b92915050565b60005473ffffffffffffffffffffffffffffffffffffffff1633146110205760405162461bcd60e51b815260206004820181905260248201527f4f776e61626c653a2063616c6c6572206973206e6f7420746865206f776e65726044820152606401610265565b61102a60006126b2565b565b60606009805480602002602001604051908101604052809291908181526020018280548015610b305760200282019190600052602060002090815481526020019060010190808311610b1c575050505050905090565b60005473ffffffffffffffffffffffffffffffffffffffff1633146110e95760405162461bcd60e51b815260206004820181905260248201527f4f776e61626c653a2063616c6c6572206973206e6f7420746865206f776e65726044820152606401610265565b6004806110f46108fa565b600581111561110557611105613789565b146111785760405162461bcd60e51b815260206004820152602260248201527f41756374696f6e526166666c653a20697320696e20696e76616c69642073746160448201527f74650000000000000000000000000000000000000000000000000000000000006064820152608401610265565b600b5460ff16156111f15760405162461bcd60e51b815260206004820152603160248201527f41756374696f6e526166666c653a2070726f6365656473206861766520616c7260448201527f65616479206265656e20636c61696d65640000000000000000000000000000006064820152608401610265565b600b80547fffffffffffffffffffffffffffffffffffffffffffffffffffffffffffffff001660011790556000611226611674565b905080611231575050565b600954600090815b818110156112c0576000600260006009848154811061125a5761125a613a6e565b6000918252602080832090910154835282810193909352604091820181205473ffffffffffffffffffffffffffffffffffffffff16808252600193849052919020909101549091506112ac9085613b56565b935050806112b990613a9d565b9050611239565b5060006112ee60017f0000000000000000000000000000000000000000000000000000000000000000613a57565b905080841161130557611302600185613a57565b90505b61132f7f000000000000000000000000000000000000000000000000000000000000000082613ad6565b6113399084613b56565b92506000805b828110156113c357600060026000600a848154811061136057611360613a6e565b6000918252602080832090910154835282810193909352604091820181205473ffffffffffffffffffffffffffffffffffffffff16808252600190935220600201549091506113af9084613b56565b925050806113bc90613a9d565b905061133f565b506113ce8185613a57565b93506113ef60005473ffffffffffffffffffffffffffffffffffffffff1690565b73ffffffffffffffffffffffffffffffffffffffff166108fc859081150290604051600060405180830381858888f19350505050158015611434573d6000803e3d6000fd5b50505050505050565b60005473ffffffffffffffffffffffffffffffffffffffff1633146114a45760405162461bcd60e51b815260206004820181905260248201527f4f776e61626c653a2063616c6c6572206973206e6f7420746865206f776e65726044820152606401610265565b6002806114af6108fa565b60058111156114c0576114c0613789565b146115335760405162461bcd60e51b815260206004820152602260248201527f41756374696f6e526166666c653a20697320696e20696e76616c69642073746160448201527f74650000000000000000000000000000000000000000000000000000000000006064820152608401610265565b600780547fffffffffffffffffffffffffffffffffffffffffffffffffffffffffffffff001660011790556000611568611674565b90507f000000000000000000000000000000000000000000000000000000000000000080821161159757505050565b60006115a38284613a57565b90507f0000000000000000000000000000000000000000000000000000000000000000808210156115d15750805b60005b8181101561161e5760006115e86004612727565b905060006115f58261298e565b9050611600816129a1565b61160b600d82612a11565b50508061161790613a9d565b90506115d4565b5061162b600460006136dc565b60056000905560066000905560005b81811015610f1257600061164e600d612727565b905061166361165e600183613a57565b612a32565b5061166d81613a9d565b905061163a565b600060016003546116859190613a57565b905090565b60005473ffffffffffffffffffffffffffffffffffffffff1633146116f15760405162461bcd60e51b815260206004820181905260248201527f4f776e61626c653a2063616c6c6572206973206e6f7420746865206f776e65726044820152606401610265565b6004806116fc6108fa565b600581111561170d5761170d613789565b146117805760405162461bcd60e51b815260206004820152602260248201527f41756374696f6e526166666c653a20697320696e20696e76616c69642073746160448201527f74650000000000000000000000000000000000000000000000000000000000006064820152608401610265565b600c54600854806117f95760405162461bcd60e51b815260206004820152602960248201527f41756374696f6e526166666c653a20746865726520617265206e6f206665657360448201527f20746f20636c61696d00000000000000000000000000000000000000000000006064820152608401610265565b80821061186e5760405162461bcd60e51b815260206004820152602d60248201527f41756374696f6e526166666c653a2066656573206861766520616c726561647960448201527f206265656e20636c61696d6564000000000000000000000000000000000000006064820152608401610265565b600061187a8584613b56565b9050818111156118875750805b6000835b828110156119285760006118bb600883815481106118ab576118ab613a6e565b9060005260206000200154610f1b565b73ffffffffffffffffffffffffffffffffffffffff81166000908152600160208190526040909120015490915060646118f5826062613ad6565b6118ff9190613b42565b6119099082613a57565b6119139085613b56565b935050508061192190613a9d565b905061188b565b50600c8290556000805460405173ffffffffffffffffffffffffffffffffffffffff9091169183156108fc02918491818181858888f19350505050158015611434573d6000803e3d6000fd5b3332146119e95760405162461bcd60e51b815260206004820152603260248201527f41756374696f6e526166666c653a20696e7465726e616c207472616e7361637460448201527f696f6e732061726520666f7262696464656e00000000000000000000000000006064820152608401610265565b6001806119f46108fa565b6005811115611a0557611a05613789565b14611a785760405162461bcd60e51b815260206004820152602260248201527f41756374696f6e526166666c653a20697320696e20696e76616c69642073746160448201527f74650000000000000000000000000000000000000000000000000000000000006064820152608401610265565b6064831115611aef5760405162461bcd60e51b815260206004820152602c60248201527f41756374696f6e526166666c653a20646973636f756e74206d7573742062652060448201527f6174206d6f7374203130302500000000000000000000000000000000000000006064820152608401610265565b60408051336020820152908101849052600090606001604051602081830303815290604052805190602001209050611b48837f000000000000000000000000000000000000000000000000000000000000000083612b1c565b611bba5760405162461bcd60e51b815260206004820152602560248201527f41756374696f6e526166666c653a20646973636f756e742070726f6f6620696e60448201527f76616c69640000000000000000000000000000000000000000000000000000006064820152608401610265565b611bc2612456565b336000908152600160205260408120600281015490917f0000000000000000000000000000000000000000000000000000000000000000906064611c068984613ad6565b611c109190613b42565b905082811115611c2257600284018190555b5050505050505050565b6060600a805480602002602001604051908101604052809291908181526020018280548015610b305760200282019190600052602060002090815481526020019060010190808311610b1c575050505050905090565b60005473ffffffffffffffffffffffffffffffffffffffff163314611ce95760405162461bcd60e51b815260206004820181905260248201527f4f776e61626c653a2063616c6c6572206973206e6f7420746865206f776e65726044820152606401610265565b600380611cf46108fa565b6005811115611d0557611d05613789565b14611d785760405162461bcd60e51b815260206004820152602260248201527f41756374696f6e526166666c653a20697320696e20696e76616c69642073746160448201527f74650000000000000000000000000000000000000000000000000000000000006064820152608401610265565b600780547fffffffffffffffffffffffffffffffffffffffffffffffffffffffffffffff0016600217905560085480611daf575050565b447f00000000000000000000000000000000000000000000000000000000000000006000611de06020610100613b42565b611dea9083613b42565b67ffffffffffffffff811115611e0257611e026138dc565b604051908082528060200260200182016040528015611e2b578160200160208202803683370190505b50805190915060005b81811015611e965760408051602081018790529081018290526060016040516020818303038152906040528051906020012060001c838281518110611e7b57611e7b613a6e565b6020908102919091010152611e8f81613a9d565b9050611e34565b5050611ebc8482600081518110611eaf57611eaf613a6e565b6020026020010151612b34565b82600081518110611ecf57611ecf613a6e565b6020908102919091010152935081841015611eed57610f1484612b93565b610f148482612be7565b611eff6136fa565b73ffffffffffffffffffffffffffffffffffffffff821660009081526001602052604090208054611f985760405162461bcd60e51b815260206004820152602660248201527f41756374696f6e526166666c653a206e6f2062696420627920676976656e206160448201527f64647265737300000000000000000000000000000000000000000000000000006064820152608401610265565b6040805160a08101825282548152600183015460208201526002830154918101919091526003808301548391606084019160ff1690811115611fdc57611fdc613789565b6003811115611fed57611fed613789565b815260039190910154610100900460ff1615156020909101529392505050565b6120156136fa565b600061202083610f1b565b9050600160008273ffffffffffffffffffffffffffffffffffffffff1673ffffffffffffffffffffffffffffffffffffffff1681526020019081526020016000206040518060a00160405290816000820154815260200160018201548152602001600282015481526020016003820160009054906101000a900460ff166003811115611fdc57611fdc613789565b60005473ffffffffffffffffffffffffffffffffffffffff1633146121155760405162461bcd60e51b815260206004820181905260248201527f4f776e61626c653a2063616c6c6572206973206e6f7420746865206f776e65726044820152606401610265565b6005806121206108fa565b600581111561213157612131613789565b146121a45760405162461bcd60e51b815260206004820152602260248201527f41756374696f6e526166666c653a20697320696e20696e76616c69642073746160448201527f74650000000000000000000000000000000000000000000000000000000000006064820152608401610265565b476121c460005473ffffffffffffffffffffffffffffffffffffffff1690565b73ffffffffffffffffffffffffffffffffffffffff166108fc829081150290604051600060405180830381858888f193505050501580156108f5573d6000803e3d6000fd5b6122116136a7565b600061221c83610f1b565b73ffffffffffffffffffffffffffffffffffffffff8116600081815260016020818152604080842081518083018352958652815160a081018352815481529381015484840152600281015491840191909152600380820154969750909593949391840192918691606084019160ff169081111561229b5761229b613789565b60038111156122ac576122ac613789565b815260039190910154610100900460ff161515602090910152905295945050505050565b60005473ffffffffffffffffffffffffffffffffffffffff1633146123375760405162461bcd60e51b815260206004820181905260248201527f4f776e61626c653a2063616c6c6572206973206e6f7420746865206f776e65726044820152606401610265565b73ffffffffffffffffffffffffffffffffffffffff81166123c05760405162461bcd60e51b815260206004820152602660248201527f4f776e61626c653a206e6577206f776e657220697320746865207a65726f206160448201527f64647265737300000000000000000000000000000000000000000000000000006064820152608401610265565b610adf816126b2565b6040805173ffffffffffffffffffffffffffffffffffffffff8416602482015260448082018490528251808303909101815260649091019091526020810180517bffffffffffffffffffffffffffffffffffffffffffffffffffffffff167fa9059cbb000000000000000000000000000000000000000000000000000000001790526108f5908490612c73565b336000908152600160208190526040909120908101546125a4577f00000000000000000000000000000000000000000000000000000000000000003410156125065760405162461bcd60e51b815260206004820152603060248201527f41756374696f6e526166666c653a2062696420616d6f756e742069732062656c60448201527f6f772072657365727665207072696365000000000000000000000000000000006064820152608401610265565b3460018201556003805490600061251c83613a9d565b90915550808255600090815260026020526040812080547fffffffffffffffffffffffff0000000000000000000000000000000000000000163317905581546008805460018181018355919093527ff3f7a9fe364faab93b216da50a3214154f22a0a2b415b23a84c8169e8b636ee39092015581549082015461259f9190612d65565b612668565b7f00000000000000000000000000000000000000000000000000000000000000003410156126395760405162461bcd60e51b8152602060048201526024808201527f41756374696f6e526166666c653a2062696420696e6372656d656e7420746f6f60448201527f206c6f77000000000000000000000000000000000000000000000000000000006064820152608401610265565b600181018054903490600061264e8385613b56565b90915550508154600183015461266691908390612e07565b505b805460018201546040805133815260208101939093528201527f87f5b2fe112bf269d30fb8ca9dc0bde0afd0cc39258e13fafd75fe794795bf0e906060015b60405180910390a150565b6000805473ffffffffffffffffffffffffffffffffffffffff8381167fffffffffffffffffffffffff0000000000000000000000000000000000000000831681178455604051919092169283917f8be0079c531659141344cd1fd0a4f28419497f9722a3daafe3b4186f6b6457e09190a35050565b805460009061279e5760405162461bcd60e51b815260206004820152603260248201527f4d6178486561703a2063616e6e6f742072656d6f7665206d617820656c656d6560448201527f6e742066726f6d20656d707479206865617000000000000000000000000000006064820152608401610265565b816000815481106127b1576127b1613a6e565b9060005260206000200154905081600183805490506127d09190613a57565b815481106127e0576127e0613a6e565b9060005260206000200154826000815481106127fe576127fe613a6e565b90600052602060002001819055508180548061281c5761281c613b6e565b6001900381819060005260206000200160009055905560005b600061284082612eab565b9050600061284d83612ec3565b8554909150839083108015612899575085848154811061286f5761286f613a6e565b906000526020600020015486848154811061288c5761288c613a6e565b9060005260206000200154115b156128a15750815b8554821080156128e857508581815481106128be576128be613a6e565b90600052602060002001548683815481106128db576128db613a6e565b9060005260206000200154115b156128f05750805b8381141561290057505050612988565b85818154811061291257612912613a6e565b906000526020600020015486858154811061292f5761292f613a6e565b906000526020600020015487868154811061294c5761294c613a6e565b90600052602060002001600089858154811061296a5761296a613a6e565b60009182526020909120019290925591909155509250612835915050565b50919050565b6000610fb363ffffffff83811690613a57565b6129ac816002612edb565b600980546001810182556000919091527f6e1540171b6c0c960b71a7020d9f60077f6af931a8bbf590da0223dacf75c7af018190556040518181527f7595f3fd584af50df83ccb184a9c80f0e5abff0b8c2798b989a878d4840d9beb906020016126a7565b815460018101835560008381526020902081018290556108f5838284612f56565b600854808210612aaa5760405162461bcd60e51b815260206004820152602f60248201527f41756374696f6e526166666c653a20696e76616c696420726166666c6520706160448201527f727469636970616e7420696e64657800000000000000000000000000000000006064820152608401610265565b6008612ab7600183613a57565b81548110612ac757612ac7613a6e565b906000526020600020015460088381548110612ae557612ae5613a6e565b6000918252602090912001556008805480612b0257612b02613b6e565b600190038181906000526020600020016000905590555050565b600082612b29858461302c565b1490505b9392505050565b6000806000612b4385856130a0565b9050600060088281548110612b5a57612b5a613a6e565b90600052602060002001549050612b70816130bb565b612b7982612a32565b612b84600187613a57565b9660209590951c955050505050565b60005b81811015612bda57600060088281548110612bb357612bb3613a6e565b90600052602060002001549050612bc98161312a565b50612bd381613a9d565b9050612b96565b50610adf600860006136dc565b612c268282600081518110612bfe57612bfe613a6e565b602002602001015160016020610100612c179190613b42565b612c219190613a57565b61319a565b915060015b81518110156108f557612c6183838381518110612c4a57612c4a613a6e565b60200260200101516020610100612c219190613b42565b9250612c6c81613a9d565b9050612c2b565b6000612cd5826040518060400160405280602081526020017f5361666545524332303a206c6f772d6c6576656c2063616c6c206661696c65648152508573ffffffffffffffffffffffffffffffffffffffff166132159092919063ffffffff16565b8051909150156108f55780806020019051810190612cf39190613b9d565b6108f55760405162461bcd60e51b815260206004820152602a60248201527f5361666545524332303a204552433230206f7065726174696f6e20646964206e60448201527f6f742073756363656564000000000000000000000000000000000000000000006064820152608401610265565b60007f0000000000000000000000000000000000000000000000000000000000000000612d90611674565b1190506000612d9f8484613224565b6006549091508215612dd257808211612db9575050505050565b612dc560048284613242565b612dcd613261565b610f14565b612ddd600483612a11565b808211612dff57600454612df390600190613a57565b60055550600655505050565b610f14613261565b60007f0000000000000000000000000000000000000000000000000000000000000000612e32611674565b101590506000612e428584613224565b600654909150808211838015612e56575080155b15612e645750505050505050565b6000612e708888613224565b9050828111801590612e9f57600554612e8c9060049087613273565b612e94613261565b505050505050505050565b612e9460048387613242565b6000612eb8826002613ad6565b610fb3906001613b56565b6000612ed0826002613ad6565b610fb3906002613b56565b6000612ee683610f1b565b905081600160008373ffffffffffffffffffffffffffffffffffffffff1673ffffffffffffffffffffffffffffffffffffffff16815260200190815260200160002060030160006101000a81548160ff02191690836003811115612f4c57612f4c613789565b0217905550505050565b600082118015612fa55750828281548110612f7357612f73613a6e565b906000526020600020015483612f888461332e565b81548110612f9857612f98613a6e565b9060005260206000200154105b156108f5578083612fb58461332e565b81548110612fc557612fc5613a6e565b906000526020600020015484612fda8561332e565b81548110612fea57612fea613a6e565b90600052602060002001600086868154811061300857613008613a6e565b60009182526020909120019290925591909155506130258261332e565b9150612f56565b600081815b845181101561309857600085828151811061304e5761304e613a6e565b602002602001015190508083116130745760008381526020829052604090209250613085565b600081815260208490526040902092505b508061309081613a9d565b915050613031565b509392505050565b600063ffffffff82166130b38482613bbf565b949350505050565b6130c6816001612edb565b600a80546001810182556000919091527fc65a7bb8d6351c1cf70c95a316cc6a92839c986682d98bc35f958f4883f9d2a8018190556040518181527e8923b8adac05258abf40b3e936d1a95d3c63fa197d9ded7f853d8f7dcbc5a3906020016126a7565b613135816003612edb565b600a80546001810182556000919091527fc65a7bb8d6351c1cf70c95a316cc6a92839c986682d98bc35f958f4883f9d2a8018190556040518181527fa201aedcbcadeeae47194e16fa8156404ec2c7060dec4bc5fe06b161a31bcb56906020016126a7565b6000805b8281101561320c5760006131b286866130a0565b90506000600882815481106131c9576131c9613a6e565b906000526020600020015490506131df8161312a565b6131e882612a32565b6131f187613bd3565b9650505060209390931c9261320581613a9d565b905061319e565b50929392505050565b60606130b38484600085613347565b60006132348363ffffffff613a57565b602083901b17905092915050565b600061324e84846134a9565b905061325b848284613273565b50505050565b61326b6004613560565b600655600555565b82828154811061328557613285613a6e565b906000526020600020015481116133045760405162461bcd60e51b815260206004820152603060248201527f4d6178486561703a206e65772076616c7565206d75737420626520626967676560448201527f72207468616e206f6c642076616c7565000000000000000000000000000000006064820152608401610265565b8083838154811061331757613317613a6e565b6000918252602090912001556108f5838383612f56565b6000600261333d600184613a57565b610fb39190613b42565b6060824710156133bf5760405162461bcd60e51b815260206004820152602660248201527f416464726573733a20696e73756666696369656e742062616c616e636520666f60448201527f722063616c6c00000000000000000000000000000000000000000000000000006064820152608401610265565b73ffffffffffffffffffffffffffffffffffffffff85163b6134235760405162461bcd60e51b815260206004820152601d60248201527f416464726573733a2063616c6c20746f206e6f6e2d636f6e74726163740000006044820152606401610265565b6000808673ffffffffffffffffffffffffffffffffffffffff16858760405161344c9190613c34565b60006040518083038185875af1925050503d8060008114613489576040519150601f19603f3d011682016040523d82523d6000602084013e61348e565b606091505b509150915061349e82828661366e565b979650505050505050565b6000805b83548110156134f157828482815481106134c9576134c9613a6e565b906000526020600020015414156134e1579050610fb3565b6134ea81613a9d565b90506134ad565b5060405162461bcd60e51b815260206004820152602760248201527f4d6178486561703a206b6579207769746820676976656e2076616c7565206e6f60448201527f7420666f756e64000000000000000000000000000000000000000000000000006064820152608401610265565b80546000908190806135da5760405162461bcd60e51b815260206004820152603260248201527f4d6178486561703a2063616e6e6f742066696e64206d696e696d756d20656c6560448201527f6d656e74206f6e20656d707479206865617000000000000000000000000000006064820152608401610265565b60006135e7600283613b42565b90508481815481106135fb576135fb613a6e565b90600052602060002001549250809350600081600161361a9190613b56565b90505b8281101561366657600086828154811061363957613639613a6e565b9060005260206000200154905084811015613655578094508195505b5061365f81613a9d565b905061361d565b505050915091565b6060831561367d575081612b2d565b82511561368d5782518084602001fd5b8160405162461bcd60e51b81526004016102659190613c50565b6040518060400160405280600073ffffffffffffffffffffffffffffffffffffffff1681526020016136d76136fa565b905290565b5080546000825590600052602060002090810190610adf919061373a565b6040518060a001604052806000815260200160008152602001600081526020016000600381111561372d5761372d613789565b8152600060209091015290565b5b8082111561374f576000815560010161373b565b5090565b60006020828403121561376557600080fd5b813573ffffffffffffffffffffffffffffffffffffffff81168114612b2d57600080fd5b7f4e487b7100000000000000000000000000000000000000000000000000000000600052602160045260246000fd5b60208101600683106137cc576137cc613789565b91905290565b6020808252825182820181905260009190848201906040850190845b8181101561380a578351835292840192918401916001016137ee565b50909695505050505050565b80518252602081015160208301526040810151604083015260608101516004811061384357613843613789565b60608301526080908101511515910152565b73ffffffffffffffffffffffffffffffffffffffff815116825260208101516108f56020840182613816565b6020808252825182820181905260009190848201906040850190845b8181101561380a576138b0838551613855565b9284019260c0929092019160010161389d565b6000602082840312156138d557600080fd5b5035919050565b7f4e487b7100000000000000000000000000000000000000000000000000000000600052604160045260246000fd5b6000806040838503121561391e57600080fd5b8235915060208084013567ffffffffffffffff8082111561393e57600080fd5b818601915086601f83011261395257600080fd5b813581811115613964576139646138dc565b8060051b6040517fffffffffffffffffffffffffffffffffffffffffffffffffffffffffffffffe0603f830116810181811085821117156139a7576139a76138dc565b6040529182528482019250838101850191898311156139c557600080fd5b938501935b828510156139e3578435845293850193928501926139ca565b8096505050505050509250929050565b60a08101610fb38284613816565b60c08101610fb38284613855565b600060208284031215613a2157600080fd5b5051919050565b7f4e487b7100000000000000000000000000000000000000000000000000000000600052601160045260246000fd5b600082821015613a6957613a69613a28565b500390565b7f4e487b7100000000000000000000000000000000000000000000000000000000600052603260045260246000fd5b60007fffffffffffffffffffffffffffffffffffffffffffffffffffffffffffffffff821415613acf57613acf613a28565b5060010190565b6000817fffffffffffffffffffffffffffffffffffffffffffffffffffffffffffffffff0483118215151615613b0e57613b0e613a28565b500290565b7f4e487b7100000000000000000000000000000000000000000000000000000000600052601260045260246000fd5b600082613b5157613b51613b13565b500490565b60008219821115613b6957613b69613a28565b500190565b7f4e487b7100000000000000000000000000000000000000000000000000000000600052603160045260246000fd5b600060208284031215613baf57600080fd5b81518015158114612b2d57600080fd5b600082613bce57613bce613b13565b500690565b600081613be257613be2613a28565b507fffffffffffffffffffffffffffffffffffffffffffffffffffffffffffffffff0190565b60005b83811015613c23578181015183820152602001613c0b565b8381111561325b5750506000910152565b60008251613c46818460208701613c08565b9190910192915050565b6020815260008251806020840152613c6f816040850160208701613c08565b601f017fffffffffffffffffffffffffffffffffffffffffffffffffffffffffffffffe016919091016040019291505056fea2646970667358221220ce5d35b5ee2ceac95c5eb2c431415836e3d88df4bdceb299cfd6e33cb3fd07e964736f6c634300080a0033"
}