{
  "address": "0x5a6F2D4d90498eA8eD7A10395aED1c41D0B637FC",
  "abi": [
    {
      "inputs": [
        {
          "internalType": "address",
          "name": "initialOwner",
          "type": "address"
        },
        {
          "internalType": "uint256",
          "name": "biddingStartTime",
          "type": "uint256"
        },
        {
          "internalType": "uint256",
          "name": "biddingEndTime",
          "type": "uint256"
        },
        {
          "internalType": "uint256",
          "name": "claimingEndTime",
          "type": "uint256"
        },
        {
          "internalType": "uint256",
          "name": "auctionWinnersCount",
          "type": "uint256"
        },
        {
          "internalType": "uint256",
          "name": "raffleWinnersCount",
          "type": "uint256"
        },
        {
          "internalType": "uint256",
          "name": "reservePrice",
          "type": "uint256"
        },
        {
          "internalType": "uint256",
          "name": "minBidIncrement",
          "type": "uint256"
        },
        {
          "internalType": "bytes32",
          "name": "discountRoot",
          "type": "bytes32"
        }
      ],
      "stateMutability": "nonpayable",
      "type": "constructor"
    },
    {
      "anonymous": false,
      "inputs": [
        {
          "indexed": false,
          "internalType": "uint256",
          "name": "bidderID",
          "type": "uint256"
        }
      ],
      "name": "NewAuctionWinner",
      "type": "event"
    },
    {
      "anonymous": false,
      "inputs": [
        {
          "indexed": false,
          "internalType": "address",
          "name": "bidder",
          "type": "address"
        },
        {
          "indexed": false,
          "internalType": "uint256",
          "name": "bidderID",
          "type": "uint256"
        },
        {
          "indexed": false,
          "internalType": "uint256",
          "name": "bidAmount",
          "type": "uint256"
        }
      ],
      "name": "NewBid",
      "type": "event"
    },
    {
      "anonymous": false,
      "inputs": [
        {
          "indexed": false,
          "internalType": "uint256",
          "name": "bidderID",
          "type": "uint256"
        }
      ],
      "name": "NewGoldenTicketWinner",
      "type": "event"
    },
    {
      "anonymous": false,
      "inputs": [
        {
          "indexed": false,
          "internalType": "uint256",
          "name": "bidderID",
          "type": "uint256"
        }
      ],
      "name": "NewRaffleWinner",
      "type": "event"
    },
    {
      "anonymous": false,
      "inputs": [
        {
          "indexed": true,
          "internalType": "address",
          "name": "previousOwner",
          "type": "address"
        },
        {
          "indexed": true,
          "internalType": "address",
          "name": "newOwner",
          "type": "address"
        }
      ],
      "name": "OwnershipTransferred",
      "type": "event"
    },
    {
      "stateMutability": "payable",
      "type": "fallback"
    },
    {
      "inputs": [],
      "name": "auctionWinnersCount",
      "outputs": [
        {
          "internalType": "uint256",
          "name": "",
          "type": "uint256"
        }
      ],
      "stateMutability": "view",
      "type": "function"
    },
    {
      "inputs": [],
      "name": "bid",
      "outputs": [],
      "stateMutability": "payable",
      "type": "function"
    },
    {
      "inputs": [
        {
          "internalType": "uint256",
          "name": "discountPercentage",
          "type": "uint256"
        },
        {
          "internalType": "bytes32[]",
          "name": "proof",
          "type": "bytes32[]"
        }
      ],
      "name": "bidWithDiscount",
      "outputs": [],
      "stateMutability": "payable",
      "type": "function"
    },
    {
      "inputs": [],
      "name": "biddingEndTime",
      "outputs": [
        {
          "internalType": "uint256",
          "name": "",
          "type": "uint256"
        }
      ],
      "stateMutability": "view",
      "type": "function"
    },
    {
      "inputs": [],
      "name": "biddingStartTime",
      "outputs": [
        {
          "internalType": "uint256",
          "name": "",
          "type": "uint256"
        }
      ],
      "stateMutability": "view",
      "type": "function"
    },
    {
      "inputs": [
        {
          "internalType": "uint256",
          "name": "bidderID",
          "type": "uint256"
        }
      ],
      "name": "claim",
      "outputs": [],
      "stateMutability": "nonpayable",
      "type": "function"
    },
    {
      "inputs": [
        {
          "internalType": "uint256",
          "name": "bidsCount",
          "type": "uint256"
        }
      ],
      "name": "claimFees",
      "outputs": [],
      "stateMutability": "nonpayable",
      "type": "function"
    },
    {
      "inputs": [],
      "name": "claimProceeds",
      "outputs": [],
      "stateMutability": "nonpayable",
      "type": "function"
    },
    {
      "inputs": [],
      "name": "claimingEndTime",
      "outputs": [
        {
          "internalType": "uint256",
          "name": "",
          "type": "uint256"
        }
      ],
      "stateMutability": "view",
      "type": "function"
    },
    {
      "inputs": [],
      "name": "discountRoot",
      "outputs": [
        {
          "internalType": "bytes32",
          "name": "",
          "type": "bytes32"
        }
      ],
      "stateMutability": "view",
      "type": "function"
    },
    {
      "inputs": [],
      "name": "getAuctionWinners",
      "outputs": [
        {
          "internalType": "uint256[]",
          "name": "",
          "type": "uint256[]"
        }
      ],
      "stateMutability": "view",
      "type": "function"
    },
    {
      "inputs": [
        {
          "internalType": "address",
          "name": "bidder",
          "type": "address"
        }
      ],
      "name": "getBid",
      "outputs": [
        {
          "components": [
            {
              "internalType": "uint256",
              "name": "bidderID",
              "type": "uint256"
            },
            {
              "internalType": "uint256",
              "name": "amount",
              "type": "uint256"
            },
            {
              "internalType": "uint256",
              "name": "discount",
              "type": "uint256"
            },
            {
              "internalType": "enum BidModel.WinType",
              "name": "winType",
              "type": "uint8"
            },
            {
              "internalType": "bool",
              "name": "claimed",
              "type": "bool"
            }
          ],
          "internalType": "struct BidModel.Bid",
          "name": "",
          "type": "tuple"
        }
      ],
      "stateMutability": "view",
      "type": "function"
    },
    {
      "inputs": [
        {
          "internalType": "uint256",
          "name": "bidderID",
          "type": "uint256"
        }
      ],
      "name": "getBidByID",
      "outputs": [
        {
          "components": [
            {
              "internalType": "uint256",
              "name": "bidderID",
              "type": "uint256"
            },
            {
              "internalType": "uint256",
              "name": "amount",
              "type": "uint256"
            },
            {
              "internalType": "uint256",
              "name": "discount",
              "type": "uint256"
            },
            {
              "internalType": "enum BidModel.WinType",
              "name": "winType",
              "type": "uint8"
            },
            {
              "internalType": "bool",
              "name": "claimed",
              "type": "bool"
            }
          ],
          "internalType": "struct BidModel.Bid",
          "name": "",
          "type": "tuple"
        }
      ],
      "stateMutability": "view",
      "type": "function"
    },
    {
      "inputs": [
        {
          "internalType": "uint256",
          "name": "bidderID",
          "type": "uint256"
        }
      ],
      "name": "getBidWithAddress",
      "outputs": [
        {
          "components": [
            {
              "internalType": "address",
              "name": "bidder",
              "type": "address"
            },
            {
              "components": [
                {
                  "internalType": "uint256",
                  "name": "bidderID",
                  "type": "uint256"
                },
                {
                  "internalType": "uint256",
                  "name": "amount",
                  "type": "uint256"
                },
                {
                  "internalType": "uint256",
                  "name": "discount",
                  "type": "uint256"
                },
                {
                  "internalType": "enum BidModel.WinType",
                  "name": "winType",
                  "type": "uint8"
                },
                {
                  "internalType": "bool",
                  "name": "claimed",
                  "type": "bool"
                }
              ],
              "internalType": "struct BidModel.Bid",
              "name": "bid",
              "type": "tuple"
            }
          ],
          "internalType": "struct BidModel.BidWithAddress",
          "name": "",
          "type": "tuple"
        }
      ],
      "stateMutability": "view",
      "type": "function"
    },
    {
      "inputs": [
        {
          "internalType": "uint256",
          "name": "bidderID",
          "type": "uint256"
        }
      ],
      "name": "getBidderAddress",
      "outputs": [
        {
          "internalType": "address payable",
          "name": "",
          "type": "address"
        }
      ],
      "stateMutability": "view",
      "type": "function"
    },
    {
      "inputs": [],
      "name": "getBiddersCount",
      "outputs": [
        {
          "internalType": "uint256",
          "name": "",
          "type": "uint256"
        }
      ],
      "stateMutability": "view",
      "type": "function"
    },
    {
      "inputs": [],
      "name": "getBidsWithAddresses",
      "outputs": [
        {
          "components": [
            {
              "internalType": "address",
              "name": "bidder",
              "type": "address"
            },
            {
              "components": [
                {
                  "internalType": "uint256",
                  "name": "bidderID",
                  "type": "uint256"
                },
                {
                  "internalType": "uint256",
                  "name": "amount",
                  "type": "uint256"
                },
                {
                  "internalType": "uint256",
                  "name": "discount",
                  "type": "uint256"
                },
                {
                  "internalType": "enum BidModel.WinType",
                  "name": "winType",
                  "type": "uint8"
                },
                {
                  "internalType": "bool",
                  "name": "claimed",
                  "type": "bool"
                }
              ],
              "internalType": "struct BidModel.Bid",
              "name": "bid",
              "type": "tuple"
            }
          ],
          "internalType": "struct BidModel.BidWithAddress[]",
          "name": "",
          "type": "tuple[]"
        }
      ],
      "stateMutability": "view",
      "type": "function"
    },
    {
      "inputs": [],
      "name": "getRaffleParticipants",
      "outputs": [
        {
          "internalType": "uint256[]",
          "name": "",
          "type": "uint256[]"
        }
      ],
      "stateMutability": "view",
      "type": "function"
    },
    {
      "inputs": [],
      "name": "getRaffleWinners",
      "outputs": [
        {
          "internalType": "uint256[]",
          "name": "",
          "type": "uint256[]"
        }
      ],
      "stateMutability": "view",
      "type": "function"
    },
    {
      "inputs": [],
      "name": "getState",
      "outputs": [
        {
          "internalType": "enum StateModel.State",
          "name": "",
          "type": "uint8"
        }
      ],
      "stateMutability": "view",
      "type": "function"
    },
    {
      "inputs": [],
      "name": "minBidIncrement",
      "outputs": [
        {
          "internalType": "uint256",
          "name": "",
          "type": "uint256"
        }
      ],
      "stateMutability": "view",
      "type": "function"
    },
    {
      "inputs": [],
      "name": "owner",
      "outputs": [
        {
          "internalType": "address",
          "name": "",
          "type": "address"
        }
      ],
      "stateMutability": "view",
      "type": "function"
    },
    {
      "inputs": [],
      "name": "raffleWinnersCount",
      "outputs": [
        {
          "internalType": "uint256",
          "name": "",
          "type": "uint256"
        }
      ],
      "stateMutability": "view",
      "type": "function"
    },
    {
      "inputs": [],
      "name": "renounceOwnership",
      "outputs": [],
      "stateMutability": "nonpayable",
      "type": "function"
    },
    {
      "inputs": [
        {
          "internalType": "address",
          "name": "tokenAddress",
          "type": "address"
        }
      ],
      "name": "rescueTokens",
      "outputs": [],
      "stateMutability": "nonpayable",
      "type": "function"
    },
    {
      "inputs": [],
      "name": "reservePrice",
      "outputs": [
        {
          "internalType": "uint256",
          "name": "",
          "type": "uint256"
        }
      ],
      "stateMutability": "view",
      "type": "function"
    },
    {
      "inputs": [],
      "name": "settleAuction",
      "outputs": [],
      "stateMutability": "nonpayable",
      "type": "function"
    },
    {
      "inputs": [],
      "name": "settleRaffle",
      "outputs": [],
      "stateMutability": "nonpayable",
      "type": "function"
    },
    {
      "inputs": [
        {
          "internalType": "address",
          "name": "newOwner",
          "type": "address"
        }
      ],
      "name": "transferOwnership",
      "outputs": [],
      "stateMutability": "nonpayable",
      "type": "function"
    },
    {
      "inputs": [],
      "name": "withdrawUnclaimedFunds",
      "outputs": [],
      "stateMutability": "nonpayable",
      "type": "function"
    },
    {
      "stateMutability": "payable",
      "type": "receive"
    }
  ],
  "transactionHash": "0x0444f5f9c931b4755d0a0c7b6419dc036f8e1b44374d3e6017daa31d4ec6a7d2",
  "args": [
    "0x5F73c13bD0C5e82c58179207940B8e40CE89152c",
    1679306400,
    1679328000,
    1679396400,
    5,
    8,
    "10000000000000000",
    "1000000000000000",
    "0x4181095aedb0c5a141c99453172ed6165111c24da8cdabfee1aecd04631c32cf"
  ],
  "numDeployments": 21,
  "bytecode": "0x61018060405260016003556000196006556007805460ff191690553480156200002757600080fd5b5060405162004102380380620041028339810160408190526200004a9162000512565b87878787878787876200005d33620003e5565b60008511620000d95760405162461bcd60e51b815260206004820152603460248201527f436f6e6669673a2061756374696f6e2077696e6e65727320636f756e74206d7560448201527f73742062652067726561746572207468616e203000000000000000000000000060648201526084015b60405180910390fd5b60008411620001515760405162461bcd60e51b815260206004820152603360248201527f436f6e6669673a20726166666c652077696e6e65727320636f756e74206d757360448201527f742062652067726561746572207468616e2030000000000000000000000000006064820152608401620000d0565b620001606020610100620005aa565b6200016c9085620005c1565b15620001c75760405162461bcd60e51b8152602060048201526024808201527f436f6e6669673a20696e76616c696420726166666c652077696e6e65727320636044820152631bdd5b9d60e21b6064820152608401620000d0565b8688106200023e5760405162461bcd60e51b815260206004820152603a60248201527f436f6e6669673a2062696464696e672073746172742074696d65206d7573742060448201527f6265206265666f72652062696464696e6720656e642074696d650000000000006064820152608401620000d0565b858710620002b55760405162461bcd60e51b815260206004820152603960248201527f436f6e6669673a2062696464696e6720656e642074696d65206d75737420626560448201527f206265666f726520636c61696d696e6720656e642074696d65000000000000006064820152608401620000d0565b600083116200031c5760405162461bcd60e51b815260206004820152602c60248201527f436f6e6669673a2072657365727665207072696365206d75737420626520677260448201526b06561746572207468616e20360a41b6064820152608401620000d0565b60008211620003875760405162461bcd60e51b815260206004820152603060248201527f436f6e6669673a206d696e2062696420696e6372656d656e74206d757374206260448201526f0652067726561746572207468616e20360841b6064820152608401620000d0565b60809790975260a09590955260c09390935260e091909152610100526101205261014052610160526001600160a01b0389163314620003d657620003d6896200043560201b620020371760201c565b505050505050505050620005d8565b600080546001600160a01b038381166001600160a01b0319831681178455604051919092169283917f8be0079c531659141344cd1fd0a4f28419497f9722a3daafe3b4186f6b6457e09190a35050565b6200043f620004b4565b6001600160a01b038116620004a65760405162461bcd60e51b815260206004820152602660248201527f4f776e61626c653a206e6577206f776e657220697320746865207a65726f206160448201526564647265737360d01b6064820152608401620000d0565b620004b181620003e5565b50565b6000546001600160a01b03163314620005105760405162461bcd60e51b815260206004820181905260248201527f4f776e61626c653a2063616c6c6572206973206e6f7420746865206f776e65726044820152606401620000d0565b565b60008060008060008060008060006101208a8c0312156200053257600080fd5b89516001600160a01b03811681146200054a57600080fd5b8099505060208a0151975060408a0151965060608a0151955060808a0151945060a08a0151935060c08a0151925060e08a015191506101008a015190509295985092959850929598565b634e487b7160e01b600052601260045260246000fd5b600082620005bc57620005bc62000594565b500490565b600082620005d357620005d362000594565b500690565b60805160a05160c05160e05161010051610120516101405161016051613a5b620006a760003960008181610336015261194801526000818161041b01526123150152600081816106d201528181610dc3015281816111ed015281816119ff01526121e101526000818161046e015281816111ad015281816113f00152611b780152600081816105830152818161142b01528181612ad60152612b7801526000818161068a015261089f01526000818161037a01526109160152600081816104a101526109430152613a5b6000f3fe6080604052600436106101d05760003560e01c80638da5cb5b116100f7578063b70632b611610095578063d30d155511610064578063d30d1555146106ae578063db2e1eed146106c3578063e4515344146106f6578063f2fde38b146107235761026e565b8063b70632b614610619578063c8b342ab1461062e578063c8feb1fd1461065b578063cba9794a1461067b5761026e565b8063ab72bf32116100d1578063ab72bf32146105bc578063ac68a748146105d1578063b0ba4a31146105f1578063b5f5d245146106045761026e565b80638da5cb5b14610549578063953c519414610574578063a4d0a17e146105a75761026e565b8063335b115e1161016f5780635fa382801161013e5780635fa38280146104c5578063715018a61461050a5780637bea1a0a1461051f5780638c3b0ca8146105345761026e565b8063335b115e1461040c578063379607f51461043f5780633aa2aaa01461045f578063553fc574146104925761026e565b80631865c57d116101ab5780631865c57d1461039e5780631998aeef146103c05780631af37971146103c857806328314944146103ea5761026e565b8062ae3bf8146103025780630b2b5837146103245780631022eccb1461036b5761026e565b3661026e5760405162461bcd60e51b815260206004820152604260248201527f41756374696f6e526166666c653a20636f6e747261637420616363657074732060448201527f6574686572207472616e7366657273206f6e6c7920627920626964206d65746860648201527f6f64000000000000000000000000000000000000000000000000000000000000608482015260a4015b60405180910390fd5b60405162461bcd60e51b815260206004820152604260248201527f41756374696f6e526166666c653a20636f6e747261637420616363657074732060448201527f6574686572207472616e7366657273206f6e6c7920627920626964206d65746860648201527f6f64000000000000000000000000000000000000000000000000000000000000608482015260a401610265565b34801561030e57600080fd5b5061032261031d3660046134d7565b610743565b005b34801561033057600080fd5b506103587f000000000000000000000000000000000000000000000000000000000000000081565b6040519081526020015b60405180910390f35b34801561037757600080fd5b507f0000000000000000000000000000000000000000000000000000000000000000610358565b3480156103aa57600080fd5b506103b361089b565b604051610362919061353c565b610322610974565b3480156103d457600080fd5b506103dd610a83565b6040516103629190613556565b3480156103f657600080fd5b506103ff610adb565b6040516103629190613605565b34801561041857600080fd5b507f0000000000000000000000000000000000000000000000000000000000000000610358565b34801561044b57600080fd5b5061032261045a366004613647565b610b98565b34801561046b57600080fd5b507f0000000000000000000000000000000000000000000000000000000000000000610358565b34801561049e57600080fd5b507f0000000000000000000000000000000000000000000000000000000000000000610358565b3480156104d157600080fd5b506104e56104e0366004613647565b610ebc565b60405173ffffffffffffffffffffffffffffffffffffffff9091168152602001610362565b34801561051657600080fd5b50610322610f5a565b34801561052b57600080fd5b506103dd610f6e565b34801561054057600080fd5b50610322610fc4565b34801561055557600080fd5b5060005473ffffffffffffffffffffffffffffffffffffffff166104e5565b34801561058057600080fd5b507f0000000000000000000000000000000000000000000000000000000000000000610358565b3480156105b357600080fd5b50610322611320565b3480156105c857600080fd5b506103586114f8565b3480156105dd57600080fd5b506103226105ec366004613647565b61150e565b6103226105ff36600461368f565b611799565b34801561061057600080fd5b506103dd611a51565b34801561062557600080fd5b50610322611aa7565b34801561063a57600080fd5b5061064e6106493660046134d7565b611cbd565b6040516103629190613777565b34801561066757600080fd5b5061064e610676366004613647565b611dd3565b34801561068757600080fd5b507f0000000000000000000000000000000000000000000000000000000000000000610358565b3480156106ba57600080fd5b50610322611e74565b3480156106cf57600080fd5b507f0000000000000000000000000000000000000000000000000000000000000000610358565b34801561070257600080fd5b50610716610711366004613647565b611f70565b6040516103629190613785565b34801561072f57600080fd5b5061032261073e3660046134d7565b612037565b61074b6120d1565b6040517f70a08231000000000000000000000000000000000000000000000000000000008152306004820152819060009073ffffffffffffffffffffffffffffffffffffffff8316906370a0823190602401602060405180830381865afa1580156107ba573d6000803e3d6000fd5b505050506040513d601f19601f820116820180604052508101906107de9190613793565b9050600081116108565760405162461bcd60e51b815260206004820152602a60248201527f41756374696f6e526166666c653a206e6f20746f6b656e7320666f722067697660448201527f656e2061646472657373000000000000000000000000000000000000000000006064820152608401610265565b61089661087860005473ffffffffffffffffffffffffffffffffffffffff1690565b73ffffffffffffffffffffffffffffffffffffffff84169083612138565b505050565b60007f000000000000000000000000000000000000000000000000000000000000000042106108ca5750600590565b600260075460ff1660028111156108e3576108e361350d565b14156108ef5750600490565b600160075460ff1660028111156109085761090861350d565b14156109145750600390565b7f000000000000000000000000000000000000000000000000000000000000000042106109415750600290565b7f0000000000000000000000000000000000000000000000000000000000000000421061096e5750600190565b50600090565b3332146109e95760405162461bcd60e51b815260206004820152603260248201527f41756374696f6e526166666c653a20696e7465726e616c207472616e7361637460448201527f696f6e732061726520666f7262696464656e00000000000000000000000000006064820152608401610265565b6001806109f461089b565b6005811115610a0557610a0561350d565b14610a785760405162461bcd60e51b815260206004820152602260248201527f41756374696f6e526166666c653a20697320696e20696e76616c69642073746160448201527f74650000000000000000000000000000000000000000000000000000000000006064820152608401610265565b610a806121c5565b50565b60606008805480602002602001604051908101604052809291908181526020018280548015610ad157602002820191906000526020600020905b815481526020019060010190808311610abd575b5050505050905090565b60606000610ae76114f8565b905060008167ffffffffffffffff811115610b0457610b04613660565b604051908082528060200260200182016040528015610b3d57816020015b610b2a61342b565b815260200190600190039081610b225790505b50905060015b828111610b91576000610b5582611f70565b90508083610b646001856137db565b81518110610b7457610b746137f2565b60200260200101819052505080610b8a90613821565b9050610b43565b5092915050565b600480610ba361089b565b6005811115610bb457610bb461350d565b14610c275760405162461bcd60e51b815260206004820152602260248201527f41756374696f6e526166666c653a20697320696e20696e76616c69642073746160448201527f74650000000000000000000000000000000000000000000000000000000000006064820152608401610265565b6000610c3283610ebc565b73ffffffffffffffffffffffffffffffffffffffff81166000908152600160205260409020600381015491925090610100900460ff1615610cdb5760405162461bcd60e51b815260206004820152602e60248201527f41756374696f6e526166666c653a2066756e6473206861766520616c7265616460448201527f79206265656e20636c61696d65640000000000000000000000000000000000006064820152608401610265565b600260038083015460ff1690811115610cf657610cf661350d565b1415610d6a5760405162461bcd60e51b815260206004820152603160248201527f41756374696f6e526166666c653a2061756374696f6e2077696e6e657273206360448201527f616e6e6f7420636c61696d2066756e64730000000000000000000000000000006064820152608401610265565b600381810180546101007fffffffffffffffffffffffffffffffffffffffffffffffffffffffffffff00ff8216179091556000919060ff1681811115610db257610db261350d565b1415610dfd576002820154610de7907f00000000000000000000000000000000000000000000000000000000000000006137db565b8260010154610df691906137db565b9050610e6a565b600160038084015460ff1690811115610e1857610e1861350d565b1415610e2957506001810154610e6a565b600060038084015460ff1690811115610e4457610e4461350d565b1415610e6a57606482600101546062610e5d919061385a565b610e6791906138c6565b90505b8015610eb55760405173ffffffffffffffffffffffffffffffffffffffff84169082156108fc029083906000818181858888f19350505050158015610eb3573d6000803e3d6000fd5b505b5050505050565b60008181526002602052604081205473ffffffffffffffffffffffffffffffffffffffff1680610f545760405162461bcd60e51b815260206004820152603260248201527f41756374696f6e526166666c653a20626964646572207769746820676976656e60448201527f20494420646f6573206e6f7420657869737400000000000000000000000000006064820152608401610265565b92915050565b610f626120d1565b610f6c6000612421565b565b60606009805480602002602001604051908101604052809291908181526020018280548015610ad15760200282019190600052602060002090815481526020019060010190808311610abd575050505050905090565b610fcc6120d1565b600480610fd761089b565b6005811115610fe857610fe861350d565b1461105b5760405162461bcd60e51b815260206004820152602260248201527f41756374696f6e526166666c653a20697320696e20696e76616c69642073746160448201527f74650000000000000000000000000000000000000000000000000000000000006064820152608401610265565b600b5460ff16156110d45760405162461bcd60e51b815260206004820152603160248201527f41756374696f6e526166666c653a2070726f6365656473206861766520616c7260448201527f65616479206265656e20636c61696d65640000000000000000000000000000006064820152608401610265565b600b80547fffffffffffffffffffffffffffffffffffffffffffffffffffffffffffffff0016600117905560006111096114f8565b905080611114575050565b600954600090815b818110156111a3576000600260006009848154811061113d5761113d6137f2565b6000918252602080832090910154835282810193909352604091820181205473ffffffffffffffffffffffffffffffffffffffff168082526001938490529190209091015490915061118f90856138da565b9350508061119c90613821565b905061111c565b5060006111d160017f00000000000000000000000000000000000000000000000000000000000000006137db565b90508084116111e8576111e56001856137db565b90505b6112127f00000000000000000000000000000000000000000000000000000000000000008261385a565b61121c90846138da565b92506000805b828110156112a657600060026000600a8481548110611243576112436137f2565b6000918252602080832090910154835282810193909352604091820181205473ffffffffffffffffffffffffffffffffffffffff168082526001909352206002015490915061129290846138da565b9250508061129f90613821565b9050611222565b506112b181856137db565b93506112d260005473ffffffffffffffffffffffffffffffffffffffff1690565b73ffffffffffffffffffffffffffffffffffffffff166108fc859081150290604051600060405180830381858888f19350505050158015611317573d6000803e3d6000fd5b50505050505050565b6113286120d1565b60028061133361089b565b60058111156113445761134461350d565b146113b75760405162461bcd60e51b815260206004820152602260248201527f41756374696f6e526166666c653a20697320696e20696e76616c69642073746160448201527f74650000000000000000000000000000000000000000000000000000000000006064820152608401610265565b600780547fffffffffffffffffffffffffffffffffffffffffffffffffffffffffffffff0016600117905560006113ec6114f8565b90507f000000000000000000000000000000000000000000000000000000000000000080821161141b57505050565b600061142782846137db565b90507f0000000000000000000000000000000000000000000000000000000000000000808210156114555750805b60005b818110156114a257600061146c6004612496565b90506000611479826126fd565b905061148481612710565b61148f600d82612780565b50508061149b90613821565b9050611458565b506114af60046000613460565b60056000905560066000905560005b81811015610eb35760006114d2600d612496565b90506114e76114e26001836137db565b6127a1565b506114f181613821565b90506114be565b6000600160035461150991906137db565b905090565b6115166120d1565b60048061152161089b565b60058111156115325761153261350d565b146115a55760405162461bcd60e51b815260206004820152602260248201527f41756374696f6e526166666c653a20697320696e20696e76616c69642073746160448201527f74650000000000000000000000000000000000000000000000000000000000006064820152608401610265565b600c546008548061161e5760405162461bcd60e51b815260206004820152602960248201527f41756374696f6e526166666c653a20746865726520617265206e6f206665657360448201527f20746f20636c61696d00000000000000000000000000000000000000000000006064820152608401610265565b8082106116935760405162461bcd60e51b815260206004820152602d60248201527f41756374696f6e526166666c653a2066656573206861766520616c726561647960448201527f206265656e20636c61696d6564000000000000000000000000000000000000006064820152608401610265565b600061169f85846138da565b9050818111156116ac5750805b6000835b8281101561174d5760006116e0600883815481106116d0576116d06137f2565b9060005260206000200154610ebc565b73ffffffffffffffffffffffffffffffffffffffff811660009081526001602081905260409091200154909150606461171a82606261385a565b61172491906138c6565b61172e90826137db565b61173890856138da565b935050508061174690613821565b90506116b0565b50600c8290556000805460405173ffffffffffffffffffffffffffffffffffffffff9091169183156108fc02918491818181858888f19350505050158015611317573d6000803e3d6000fd5b33321461180e5760405162461bcd60e51b815260206004820152603260248201527f41756374696f6e526166666c653a20696e7465726e616c207472616e7361637460448201527f696f6e732061726520666f7262696464656e00000000000000000000000000006064820152608401610265565b60018061181961089b565b600581111561182a5761182a61350d565b1461189d5760405162461bcd60e51b815260206004820152602260248201527f41756374696f6e526166666c653a20697320696e20696e76616c69642073746160448201527f74650000000000000000000000000000000000000000000000000000000000006064820152608401610265565b60648311156119145760405162461bcd60e51b815260206004820152602c60248201527f41756374696f6e526166666c653a20646973636f756e74206d7573742062652060448201527f6174206d6f7374203130302500000000000000000000000000000000000000006064820152608401610265565b6040805133602082015290810184905260009060600160405160208183030381529060405280519060200120905061196d837f00000000000000000000000000000000000000000000000000000000000000008361288b565b6119df5760405162461bcd60e51b815260206004820152602560248201527f41756374696f6e526166666c653a20646973636f756e742070726f6f6620696e60448201527f76616c69640000000000000000000000000000000000000000000000000000006064820152608401610265565b6119e76121c5565b336000908152600160205260408120600281015490917f0000000000000000000000000000000000000000000000000000000000000000906064611a2b898461385a565b611a3591906138c6565b905082811115611a4757600284018190555b5050505050505050565b6060600a805480602002602001604051908101604052809291908181526020018280548015610ad15760200282019190600052602060002090815481526020019060010190808311610abd575050505050905090565b611aaf6120d1565b600380611aba61089b565b6005811115611acb57611acb61350d565b14611b3e5760405162461bcd60e51b815260206004820152602260248201527f41756374696f6e526166666c653a20697320696e20696e76616c69642073746160448201527f74650000000000000000000000000000000000000000000000000000000000006064820152608401610265565b600780547fffffffffffffffffffffffffffffffffffffffffffffffffffffffffffffff0016600217905560085480611b75575050565b447f00000000000000000000000000000000000000000000000000000000000000006000611ba660206101006138c6565b611bb090836138c6565b67ffffffffffffffff811115611bc857611bc8613660565b604051908082528060200260200182016040528015611bf1578160200160208202803683370190505b50805190915060005b81811015611c5c5760408051602081018790529081018290526060016040516020818303038152906040528051906020012060001c838281518110611c4157611c416137f2565b6020908102919091010152611c5581613821565b9050611bfa565b5050611c828482600081518110611c7557611c756137f2565b60200260200101516128a1565b82600081518110611c9557611c956137f2565b6020908102919091010152935081841015611cb357610eb584612900565b610eb58482612954565b611cc561347e565b73ffffffffffffffffffffffffffffffffffffffff821660009081526001602052604090208054611d5e5760405162461bcd60e51b815260206004820152602660248201527f41756374696f6e526166666c653a206e6f2062696420627920676976656e206160448201527f64647265737300000000000000000000000000000000000000000000000000006064820152608401610265565b6040805160a08101825282548152600183015460208201526002830154918101919091526003808301548391606084019160ff1690811115611da257611da261350d565b6003811115611db357611db361350d565b815260039190910154610100900460ff1615156020909101529392505050565b611ddb61347e565b6000611de683610ebc565b9050600160008273ffffffffffffffffffffffffffffffffffffffff1673ffffffffffffffffffffffffffffffffffffffff1681526020019081526020016000206040518060a00160405290816000820154815260200160018201548152602001600282015481526020016003820160009054906101000a900460ff166003811115611da257611da261350d565b611e7c6120d1565b600580611e8761089b565b6005811115611e9857611e9861350d565b14611f0b5760405162461bcd60e51b815260206004820152602260248201527f41756374696f6e526166666c653a20697320696e20696e76616c69642073746160448201527f74650000000000000000000000000000000000000000000000000000000000006064820152608401610265565b47611f2b60005473ffffffffffffffffffffffffffffffffffffffff1690565b73ffffffffffffffffffffffffffffffffffffffff166108fc829081150290604051600060405180830381858888f19350505050158015610896573d6000803e3d6000fd5b611f7861342b565b6000611f8383610ebc565b73ffffffffffffffffffffffffffffffffffffffff8116600081815260016020818152604080842081518083018352958652815160a081018352815481529381015484840152600281015491840191909152600380820154969750909593949391840192918691606084019160ff16908111156120025761200261350d565b60038111156120135761201361350d565b815260039190910154610100900460ff161515602090910152905295945050505050565b61203f6120d1565b73ffffffffffffffffffffffffffffffffffffffff81166120c85760405162461bcd60e51b815260206004820152602660248201527f4f776e61626c653a206e6577206f776e657220697320746865207a65726f206160448201527f64647265737300000000000000000000000000000000000000000000000000006064820152608401610265565b610a8081612421565b60005473ffffffffffffffffffffffffffffffffffffffff163314610f6c5760405162461bcd60e51b815260206004820181905260248201527f4f776e61626c653a2063616c6c6572206973206e6f7420746865206f776e65726044820152606401610265565b6040805173ffffffffffffffffffffffffffffffffffffffff8416602482015260448082018490528251808303909101815260649091019091526020810180517bffffffffffffffffffffffffffffffffffffffffffffffffffffffff167fa9059cbb000000000000000000000000000000000000000000000000000000001790526108969084906129e0565b33600090815260016020819052604090912090810154612313577f00000000000000000000000000000000000000000000000000000000000000003410156122755760405162461bcd60e51b815260206004820152603060248201527f41756374696f6e526166666c653a2062696420616d6f756e742069732062656c60448201527f6f772072657365727665207072696365000000000000000000000000000000006064820152608401610265565b3460018201556003805490600061228b83613821565b90915550808255600090815260026020526040812080547fffffffffffffffffffffffff0000000000000000000000000000000000000000163317905581546008805460018181018355919093527ff3f7a9fe364faab93b216da50a3214154f22a0a2b415b23a84c8169e8b636ee39092015581549082015461230e9190612ad2565b6123d7565b7f00000000000000000000000000000000000000000000000000000000000000003410156123a85760405162461bcd60e51b8152602060048201526024808201527f41756374696f6e526166666c653a2062696420696e6372656d656e7420746f6f60448201527f206c6f77000000000000000000000000000000000000000000000000000000006064820152608401610265565b60018101805490349060006123bd83856138da565b9091555050815460018301546123d591908390612b74565b505b805460018201546040805133815260208101939093528201527f87f5b2fe112bf269d30fb8ca9dc0bde0afd0cc39258e13fafd75fe794795bf0e906060015b60405180910390a150565b6000805473ffffffffffffffffffffffffffffffffffffffff8381167fffffffffffffffffffffffff0000000000000000000000000000000000000000831681178455604051919092169283917f8be0079c531659141344cd1fd0a4f28419497f9722a3daafe3b4186f6b6457e09190a35050565b805460009061250d5760405162461bcd60e51b815260206004820152603260248201527f4d6178486561703a2063616e6e6f742072656d6f7665206d617820656c656d6560448201527f6e742066726f6d20656d707479206865617000000000000000000000000000006064820152608401610265565b81600081548110612520576125206137f2565b90600052602060002001549050816001838054905061253f91906137db565b8154811061254f5761254f6137f2565b90600052602060002001548260008154811061256d5761256d6137f2565b90600052602060002001819055508180548061258b5761258b6138f2565b6001900381819060005260206000200160009055905560005b60006125af82612c18565b905060006125bc83612c30565b855490915083908310801561260857508584815481106125de576125de6137f2565b90600052602060002001548684815481106125fb576125fb6137f2565b9060005260206000200154115b156126105750815b855482108015612657575085818154811061262d5761262d6137f2565b906000526020600020015486838154811061264a5761264a6137f2565b9060005260206000200154115b1561265f5750805b8381141561266f575050506126f7565b858181548110612681576126816137f2565b906000526020600020015486858154811061269e5761269e6137f2565b90600052602060002001548786815481106126bb576126bb6137f2565b9060005260206000200160008985815481106126d9576126d96137f2565b600091825260209091200192909255919091555092506125a4915050565b50919050565b6000610f5463ffffffff838116906137db565b61271b816002612c48565b600980546001810182556000919091527f6e1540171b6c0c960b71a7020d9f60077f6af931a8bbf590da0223dacf75c7af018190556040518181527f7595f3fd584af50df83ccb184a9c80f0e5abff0b8c2798b989a878d4840d9beb90602001612416565b81546001810183556000838152602090208101829055610896838284612cc3565b6008548082106128195760405162461bcd60e51b815260206004820152602f60248201527f41756374696f6e526166666c653a20696e76616c696420726166666c6520706160448201527f727469636970616e7420696e64657800000000000000000000000000000000006064820152608401610265565b60086128266001836137db565b81548110612836576128366137f2565b906000526020600020015460088381548110612854576128546137f2565b6000918252602090912001556008805480612871576128716138f2565b600190038181906000526020600020016000905590555050565b6000826128988584612d99565b14949350505050565b60008060006128b08585612de6565b90506000600882815481106128c7576128c76137f2565b906000526020600020015490506128dd81612e01565b6128e6826127a1565b6128f16001876137db565b9660209590951c955050505050565b60005b8181101561294757600060088281548110612920576129206137f2565b9060005260206000200154905061293681612e70565b5061294081613821565b9050612903565b50610a8060086000613460565b612993828260008151811061296b5761296b6137f2565b60200260200101516001602061010061298491906138c6565b61298e91906137db565b612ee0565b915060015b8151811015610896576129ce838383815181106129b7576129b76137f2565b6020026020010151602061010061298e91906138c6565b92506129d981613821565b9050612998565b6000612a42826040518060400160405280602081526020017f5361666545524332303a206c6f772d6c6576656c2063616c6c206661696c65648152508573ffffffffffffffffffffffffffffffffffffffff16612f5b9092919063ffffffff16565b8051909150156108965780806020019051810190612a609190613921565b6108965760405162461bcd60e51b815260206004820152602a60248201527f5361666545524332303a204552433230206f7065726174696f6e20646964206e60448201527f6f742073756363656564000000000000000000000000000000000000000000006064820152608401610265565b60007f0000000000000000000000000000000000000000000000000000000000000000612afd6114f8565b1190506000612b0c8484612f6a565b6006549091508215612b3f57808211612b26575050505050565b612b3260048284612f88565b612b3a612fa7565b610eb5565b612b4a600483612780565b808211612b6c57600454612b60906001906137db565b60055550600655505050565b610eb5612fa7565b60007f0000000000000000000000000000000000000000000000000000000000000000612b9f6114f8565b101590506000612baf8584612f6a565b600654909150808211838015612bc3575080155b15612bd15750505050505050565b6000612bdd8888612f6a565b9050828111801590612c0c57600554612bf99060049087612fb9565b612c01612fa7565b505050505050505050565b612c0160048387612f88565b6000612c2582600261385a565b610f549060016138da565b6000612c3d82600261385a565b610f549060026138da565b6000612c5383610ebc565b905081600160008373ffffffffffffffffffffffffffffffffffffffff1673ffffffffffffffffffffffffffffffffffffffff16815260200190815260200160002060030160006101000a81548160ff02191690836003811115612cb957612cb961350d565b0217905550505050565b600082118015612d125750828281548110612ce057612ce06137f2565b906000526020600020015483612cf584613074565b81548110612d0557612d056137f2565b9060005260206000200154105b15610896578083612d2284613074565b81548110612d3257612d326137f2565b906000526020600020015484612d4785613074565b81548110612d5757612d576137f2565b906000526020600020016000868681548110612d7557612d756137f2565b6000918252602090912001929092559190915550612d9282613074565b9150612cc3565b600081815b8451811015612dde57612dca82868381518110612dbd57612dbd6137f2565b602002602001015161308d565b915080612dd681613821565b915050612d9e565b509392505050565b600063ffffffff8216612df98482613943565b949350505050565b612e0c816001612c48565b600a80546001810182556000919091527fc65a7bb8d6351c1cf70c95a316cc6a92839c986682d98bc35f958f4883f9d2a8018190556040518181527e8923b8adac05258abf40b3e936d1a95d3c63fa197d9ded7f853d8f7dcbc5a390602001612416565b612e7b816003612c48565b600a80546001810182556000919091527fc65a7bb8d6351c1cf70c95a316cc6a92839c986682d98bc35f958f4883f9d2a8018190556040518181527fa201aedcbcadeeae47194e16fa8156404ec2c7060dec4bc5fe06b161a31bcb5690602001612416565b6000805b82811015612f52576000612ef88686612de6565b9050600060088281548110612f0f57612f0f6137f2565b90600052602060002001549050612f2581612e70565b612f2e826127a1565b612f3787613957565b9650505060209390931c92612f4b81613821565b9050612ee4565b50929392505050565b6060612df984846000856130bf565b6000612f7a8363ffffffff6137db565b602083901b17905092915050565b6000612f9484846131be565b9050612fa1848284612fb9565b50505050565b612fb16004613275565b600655600555565b828281548110612fcb57612fcb6137f2565b9060005260206000200154811161304a5760405162461bcd60e51b815260206004820152603060248201527f4d6178486561703a206e65772076616c7565206d75737420626520626967676560448201527f72207468616e206f6c642076616c7565000000000000000000000000000000006064820152608401610265565b8083838154811061305d5761305d6137f2565b600091825260209091200155610896838383612cc3565b600060026130836001846137db565b610f5491906138c6565b60008183106130a95760008281526020849052604090206130b8565b60008381526020839052604090205b9392505050565b6060824710156131375760405162461bcd60e51b815260206004820152602660248201527f416464726573733a20696e73756666696369656e742062616c616e636520666f60448201527f722063616c6c00000000000000000000000000000000000000000000000000006064820152608401610265565b6000808673ffffffffffffffffffffffffffffffffffffffff16858760405161316091906139b8565b60006040518083038185875af1925050503d806000811461319d576040519150601f19603f3d011682016040523d82523d6000602084013e6131a2565b606091505b50915091506131b387838387613383565b979650505050505050565b6000805b835481101561320657828482815481106131de576131de6137f2565b906000526020600020015414156131f6579050610f54565b6131ff81613821565b90506131c2565b5060405162461bcd60e51b815260206004820152602760248201527f4d6178486561703a206b6579207769746820676976656e2076616c7565206e6f60448201527f7420666f756e64000000000000000000000000000000000000000000000000006064820152608401610265565b80546000908190806132ef5760405162461bcd60e51b815260206004820152603260248201527f4d6178486561703a2063616e6e6f742066696e64206d696e696d756d20656c6560448201527f6d656e74206f6e20656d707479206865617000000000000000000000000000006064820152608401610265565b60006132fc6002836138c6565b9050848181548110613310576133106137f2565b90600052602060002001549250809350600081600161332f91906138da565b90505b8281101561337b57600086828154811061334e5761334e6137f2565b906000526020600020015490508481101561336a578094508195505b5061337481613821565b9050613332565b505050915091565b606083156133fc5782516133f55773ffffffffffffffffffffffffffffffffffffffff85163b6133f55760405162461bcd60e51b815260206004820152601d60248201527f416464726573733a2063616c6c20746f206e6f6e2d636f6e74726163740000006044820152606401610265565b5081612df9565b612df983838151156134115781518083602001fd5b8060405162461bcd60e51b815260040161026591906139d4565b6040518060400160405280600073ffffffffffffffffffffffffffffffffffffffff16815260200161345b61347e565b905290565b5080546000825590600052602060002090810190610a8091906134be565b6040518060a00160405280600081526020016000815260200160008152602001600060038111156134b1576134b161350d565b8152600060209091015290565b5b808211156134d357600081556001016134bf565b5090565b6000602082840312156134e957600080fd5b813573ffffffffffffffffffffffffffffffffffffffff811681146130b857600080fd5b7f4e487b7100000000000000000000000000000000000000000000000000000000600052602160045260246000fd5b60208101600683106135505761355061350d565b91905290565b6020808252825182820181905260009190848201906040850190845b8181101561358e57835183529284019291840191600101613572565b50909695505050505050565b8051825260208101516020830152604081015160408301526060810151600481106135c7576135c761350d565b60608301526080908101511515910152565b73ffffffffffffffffffffffffffffffffffffffff81511682526020810151610896602084018261359a565b6020808252825182820181905260009190848201906040850190845b8181101561358e576136348385516135d9565b9284019260c09290920191600101613621565b60006020828403121561365957600080fd5b5035919050565b7f4e487b7100000000000000000000000000000000000000000000000000000000600052604160045260246000fd5b600080604083850312156136a257600080fd5b8235915060208084013567ffffffffffffffff808211156136c257600080fd5b818601915086601f8301126136d657600080fd5b8135818111156136e8576136e8613660565b8060051b6040517fffffffffffffffffffffffffffffffffffffffffffffffffffffffffffffffe0603f8301168101818110858211171561372b5761372b613660565b60405291825284820192508381018501918983111561374957600080fd5b938501935b828510156137675784358452938501939285019261374e565b8096505050505050509250929050565b60a08101610f54828461359a565b60c08101610f5482846135d9565b6000602082840312156137a557600080fd5b5051919050565b7f4e487b7100000000000000000000000000000000000000000000000000000000600052601160045260246000fd5b6000828210156137ed576137ed6137ac565b500390565b7f4e487b7100000000000000000000000000000000000000000000000000000000600052603260045260246000fd5b60007fffffffffffffffffffffffffffffffffffffffffffffffffffffffffffffffff821415613853576138536137ac565b5060010190565b6000817fffffffffffffffffffffffffffffffffffffffffffffffffffffffffffffffff0483118215151615613892576138926137ac565b500290565b7f4e487b7100000000000000000000000000000000000000000000000000000000600052601260045260246000fd5b6000826138d5576138d5613897565b500490565b600082198211156138ed576138ed6137ac565b500190565b7f4e487b7100000000000000000000000000000000000000000000000000000000600052603160045260246000fd5b60006020828403121561393357600080fd5b815180151581146130b857600080fd5b60008261395257613952613897565b500690565b600081613966576139666137ac565b507fffffffffffffffffffffffffffffffffffffffffffffffffffffffffffffffff0190565b60005b838110156139a757818101518382015260200161398f565b83811115612fa15750506000910152565b600082516139ca81846020870161398c565b9190910192915050565b60208152600082518060208401526139f381604085016020870161398c565b601f017fffffffffffffffffffffffffffffffffffffffffffffffffffffffffffffffe016919091016040019291505056fea2646970667358221220b125a27a430d6dd3e1e0bf7c2540c08ca3d597c9639b3bedf66153b52702febd64736f6c634300080a0033"
}