{
  "address": "0xba5F49CbfD75E4FF1bE3d8544485CA0C66e52AD8",
  "abi": [
    {
      "inputs": [
        {
          "internalType": "address",
          "name": "initialOwner",
          "type": "address"
        },
        {
          "internalType": "uint256",
          "name": "biddingStartTime",
          "type": "uint256"
        },
        {
          "internalType": "uint256",
          "name": "biddingEndTime",
          "type": "uint256"
        },
        {
          "internalType": "uint256",
          "name": "claimingEndTime",
          "type": "uint256"
        },
        {
          "internalType": "uint256",
          "name": "auctionWinnersCount",
          "type": "uint256"
        },
        {
          "internalType": "uint256",
          "name": "raffleWinnersCount",
          "type": "uint256"
        },
        {
          "internalType": "uint256",
          "name": "reservePrice",
          "type": "uint256"
        },
        {
          "internalType": "uint256",
          "name": "minBidIncrement",
          "type": "uint256"
        }
      ],
      "stateMutability": "nonpayable",
      "type": "constructor"
    },
    {
      "anonymous": false,
      "inputs": [
        {
          "indexed": false,
          "internalType": "uint256",
          "name": "bidderID",
          "type": "uint256"
        }
      ],
      "name": "NewAuctionWinner",
      "type": "event"
    },
    {
      "anonymous": false,
      "inputs": [
        {
          "indexed": false,
          "internalType": "address",
          "name": "bidder",
          "type": "address"
        },
        {
          "indexed": false,
          "internalType": "uint256",
          "name": "bidderID",
          "type": "uint256"
        },
        {
          "indexed": false,
          "internalType": "uint256",
          "name": "bidAmount",
          "type": "uint256"
        }
      ],
      "name": "NewBid",
      "type": "event"
    },
    {
      "anonymous": false,
      "inputs": [
        {
          "indexed": false,
          "internalType": "uint256",
          "name": "bidderID",
          "type": "uint256"
        }
      ],
      "name": "NewGoldenTicketWinner",
      "type": "event"
    },
    {
      "anonymous": false,
      "inputs": [
        {
          "indexed": false,
          "internalType": "uint256",
          "name": "bidderID",
          "type": "uint256"
        }
      ],
      "name": "NewRaffleWinner",
      "type": "event"
    },
    {
      "anonymous": false,
      "inputs": [
        {
          "indexed": true,
          "internalType": "address",
          "name": "previousOwner",
          "type": "address"
        },
        {
          "indexed": true,
          "internalType": "address",
          "name": "newOwner",
          "type": "address"
        }
      ],
      "name": "OwnershipTransferred",
      "type": "event"
    },
    {
      "stateMutability": "payable",
      "type": "fallback"
    },
    {
      "inputs": [],
      "name": "auctionWinnersCount",
      "outputs": [
        {
          "internalType": "uint256",
          "name": "",
          "type": "uint256"
        }
      ],
      "stateMutability": "view",
      "type": "function"
    },
    {
      "inputs": [],
      "name": "bid",
      "outputs": [],
      "stateMutability": "payable",
      "type": "function"
    },
    {
      "inputs": [],
      "name": "biddingEndTime",
      "outputs": [
        {
          "internalType": "uint256",
          "name": "",
          "type": "uint256"
        }
      ],
      "stateMutability": "view",
      "type": "function"
    },
    {
      "inputs": [],
      "name": "biddingStartTime",
      "outputs": [
        {
          "internalType": "uint256",
          "name": "",
          "type": "uint256"
        }
      ],
      "stateMutability": "view",
      "type": "function"
    },
    {
      "inputs": [
        {
          "internalType": "uint256",
          "name": "bidderID",
          "type": "uint256"
        }
      ],
      "name": "claim",
      "outputs": [],
      "stateMutability": "nonpayable",
      "type": "function"
    },
    {
      "inputs": [
        {
          "internalType": "uint256",
          "name": "bidsCount",
          "type": "uint256"
        }
      ],
      "name": "claimFees",
      "outputs": [],
      "stateMutability": "nonpayable",
      "type": "function"
    },
    {
      "inputs": [],
      "name": "claimProceeds",
      "outputs": [],
      "stateMutability": "nonpayable",
      "type": "function"
    },
    {
      "inputs": [],
      "name": "claimingEndTime",
      "outputs": [
        {
          "internalType": "uint256",
          "name": "",
          "type": "uint256"
        }
      ],
      "stateMutability": "view",
      "type": "function"
    },
    {
      "inputs": [],
      "name": "getAuctionWinners",
      "outputs": [
        {
          "internalType": "uint256[]",
          "name": "",
          "type": "uint256[]"
        }
      ],
      "stateMutability": "view",
      "type": "function"
    },
    {
      "inputs": [
        {
          "internalType": "address",
          "name": "bidder",
          "type": "address"
        }
      ],
      "name": "getBid",
      "outputs": [
        {
          "components": [
            {
              "internalType": "uint256",
              "name": "bidderID",
              "type": "uint256"
            },
            {
              "internalType": "uint256",
              "name": "amount",
              "type": "uint256"
            },
            {
              "internalType": "enum BidModel.WinType",
              "name": "winType",
              "type": "uint8"
            },
            {
              "internalType": "bool",
              "name": "claimed",
              "type": "bool"
            }
          ],
          "internalType": "struct BidModel.Bid",
          "name": "",
          "type": "tuple"
        }
      ],
      "stateMutability": "view",
      "type": "function"
    },
    {
      "inputs": [
        {
          "internalType": "uint256",
          "name": "bidderID",
          "type": "uint256"
        }
      ],
      "name": "getBidByID",
      "outputs": [
        {
          "components": [
            {
              "internalType": "uint256",
              "name": "bidderID",
              "type": "uint256"
            },
            {
              "internalType": "uint256",
              "name": "amount",
              "type": "uint256"
            },
            {
              "internalType": "enum BidModel.WinType",
              "name": "winType",
              "type": "uint8"
            },
            {
              "internalType": "bool",
              "name": "claimed",
              "type": "bool"
            }
          ],
          "internalType": "struct BidModel.Bid",
          "name": "",
          "type": "tuple"
        }
      ],
      "stateMutability": "view",
      "type": "function"
    },
    {
      "inputs": [
        {
          "internalType": "uint256",
          "name": "bidderID",
          "type": "uint256"
        }
      ],
      "name": "getBidWithAddress",
      "outputs": [
        {
          "components": [
            {
              "internalType": "address",
              "name": "bidder",
              "type": "address"
            },
            {
              "components": [
                {
                  "internalType": "uint256",
                  "name": "bidderID",
                  "type": "uint256"
                },
                {
                  "internalType": "uint256",
                  "name": "amount",
                  "type": "uint256"
                },
                {
                  "internalType": "enum BidModel.WinType",
                  "name": "winType",
                  "type": "uint8"
                },
                {
                  "internalType": "bool",
                  "name": "claimed",
                  "type": "bool"
                }
              ],
              "internalType": "struct BidModel.Bid",
              "name": "bid",
              "type": "tuple"
            }
          ],
          "internalType": "struct BidModel.BidWithAddress",
          "name": "",
          "type": "tuple"
        }
      ],
      "stateMutability": "view",
      "type": "function"
    },
    {
      "inputs": [
        {
          "internalType": "uint256",
          "name": "bidderID",
          "type": "uint256"
        }
      ],
      "name": "getBidderAddress",
      "outputs": [
        {
          "internalType": "address payable",
          "name": "",
          "type": "address"
        }
      ],
      "stateMutability": "view",
      "type": "function"
    },
    {
      "inputs": [],
      "name": "getBiddersCount",
      "outputs": [
        {
          "internalType": "uint256",
          "name": "",
          "type": "uint256"
        }
      ],
      "stateMutability": "view",
      "type": "function"
    },
    {
      "inputs": [],
      "name": "getBidsWithAddresses",
      "outputs": [
        {
          "components": [
            {
              "internalType": "address",
              "name": "bidder",
              "type": "address"
            },
            {
              "components": [
                {
                  "internalType": "uint256",
                  "name": "bidderID",
                  "type": "uint256"
                },
                {
                  "internalType": "uint256",
                  "name": "amount",
                  "type": "uint256"
                },
                {
                  "internalType": "enum BidModel.WinType",
                  "name": "winType",
                  "type": "uint8"
                },
                {
                  "internalType": "bool",
                  "name": "claimed",
                  "type": "bool"
                }
              ],
              "internalType": "struct BidModel.Bid",
              "name": "bid",
              "type": "tuple"
            }
          ],
          "internalType": "struct BidModel.BidWithAddress[]",
          "name": "",
          "type": "tuple[]"
        }
      ],
      "stateMutability": "view",
      "type": "function"
    },
    {
      "inputs": [],
      "name": "getRaffleParticipants",
      "outputs": [
        {
          "internalType": "uint256[]",
          "name": "",
          "type": "uint256[]"
        }
      ],
      "stateMutability": "view",
      "type": "function"
    },
    {
      "inputs": [],
      "name": "getRaffleWinners",
      "outputs": [
        {
          "internalType": "uint256[]",
          "name": "",
          "type": "uint256[]"
        }
      ],
      "stateMutability": "view",
      "type": "function"
    },
    {
      "inputs": [],
      "name": "getState",
      "outputs": [
        {
          "internalType": "enum StateModel.State",
          "name": "",
          "type": "uint8"
        }
      ],
      "stateMutability": "view",
      "type": "function"
    },
    {
      "inputs": [],
      "name": "minBidIncrement",
      "outputs": [
        {
          "internalType": "uint256",
          "name": "",
          "type": "uint256"
        }
      ],
      "stateMutability": "view",
      "type": "function"
    },
    {
      "inputs": [],
      "name": "owner",
      "outputs": [
        {
          "internalType": "address",
          "name": "",
          "type": "address"
        }
      ],
      "stateMutability": "view",
      "type": "function"
    },
    {
      "inputs": [],
      "name": "raffleWinnersCount",
      "outputs": [
        {
          "internalType": "uint256",
          "name": "",
          "type": "uint256"
        }
      ],
      "stateMutability": "view",
      "type": "function"
    },
    {
      "inputs": [],
      "name": "renounceOwnership",
      "outputs": [],
      "stateMutability": "nonpayable",
      "type": "function"
    },
    {
      "inputs": [
        {
          "internalType": "address",
          "name": "tokenAddress",
          "type": "address"
        }
      ],
      "name": "rescueTokens",
      "outputs": [],
      "stateMutability": "nonpayable",
      "type": "function"
    },
    {
      "inputs": [],
      "name": "reservePrice",
      "outputs": [
        {
          "internalType": "uint256",
          "name": "",
          "type": "uint256"
        }
      ],
      "stateMutability": "view",
      "type": "function"
    },
    {
      "inputs": [],
      "name": "settleAuction",
      "outputs": [],
      "stateMutability": "nonpayable",
      "type": "function"
    },
    {
      "inputs": [
        {
          "internalType": "uint256[]",
          "name": "randomNumbers",
          "type": "uint256[]"
        }
      ],
      "name": "settleRaffle",
      "outputs": [],
      "stateMutability": "nonpayable",
      "type": "function"
    },
    {
      "inputs": [
        {
          "internalType": "address",
          "name": "newOwner",
          "type": "address"
        }
      ],
      "name": "transferOwnership",
      "outputs": [],
      "stateMutability": "nonpayable",
      "type": "function"
    },
    {
      "inputs": [],
      "name": "withdrawUnclaimedFunds",
      "outputs": [],
      "stateMutability": "nonpayable",
      "type": "function"
    },
    {
      "stateMutability": "payable",
      "type": "receive"
    }
  ],
  "transactionHash": "0xeec40f44c7c34376f5ae6c5a9563a0d2b06d101a5a8dfb20122d477eb8be8ef5",
  "args": [
    "0x472Afd5a5303ac2799475687e943bbA72846BD6b",
    1676300400,
    1676473200,
    1676646000,
    20,
    80,
    "10000000000000000",
    "1000000000000000"
  ],
  "numDeployments": 3,
  "bytecode": "0x61016060405260016003556000196006556007805460ff191690553480156200002757600080fd5b506040516200403f3803806200403f8339810160408190526200004a916200062a565b868686868686866200005c3362000509565b60008411620000d85760405162461bcd60e51b815260206004820152603460248201527f436f6e6669673a2061756374696f6e2077696e6e65727320636f756e74206d7560448201527f73742062652067726561746572207468616e203000000000000000000000000060648201526084015b60405180910390fd5b60008311620001505760405162461bcd60e51b815260206004820152603360248201527f436f6e6669673a20726166666c652077696e6e65727320636f756e74206d757360448201527f742062652067726561746572207468616e2030000000000000000000000000006064820152608401620000cf565b6200015f6020610100620006b8565b6200016b9084620006cf565b15620001c65760405162461bcd60e51b8152602060048201526024808201527f436f6e6669673a20696e76616c696420726166666c652077696e6e65727320636044820152631bdd5b9d60e21b6064820152608401620000cf565b8587106200023d5760405162461bcd60e51b815260206004820152603a60248201527f436f6e6669673a2062696464696e672073746172742074696d65206d7573742060448201527f6265206265666f72652062696464696e6720656e642074696d650000000000006064820152608401620000cf565b848610620002b45760405162461bcd60e51b815260206004820152603960248201527f436f6e6669673a2062696464696e6720656e642074696d65206d75737420626560448201527f206265666f726520636c61696d696e6720656e642074696d65000000000000006064820152608401620000cf565b600082116200031b5760405162461bcd60e51b815260206004820152602c60248201527f436f6e6669673a2072657365727665207072696365206d75737420626520677260448201526b06561746572207468616e20360a41b6064820152608401620000cf565b60008111620003865760405162461bcd60e51b815260206004820152603060248201527f436f6e6669673a206d696e2062696420696e6372656d656e74206d757374206260448201526f0652067726561746572207468616e20360841b6064820152608401620000cf565b615460620003958888620006e6565b10156200041d5760405162461bcd60e51b815260206004820152604960248201527f436f6e6669673a2062696464696e672073746172742074696d6520616e64206260448201527f696464696e6720656e642074696d65206d757374206265206174206c65617374606482015268080d9a08185c185c9d60ba1b608482015260a401620000cf565b6154606200042c8787620006e6565b1015620004b35760405162461bcd60e51b815260206004820152604860248201527f436f6e6669673a2062696464696e6720656e642074696d6520616e6420636c6160448201527f696d696e6720656e642074696d65206d757374206265206174206c65617374206064820152670d9a08185c185c9d60c21b608482015260a401620000cf565b60809690965260a09490945260c09290925260e0526101005261012052610140526001600160a01b0388163314620004fb57620004fb886200055960201b620021721760201c565b50505050505050506200070c565b600080546001600160a01b038381166001600160a01b0319831681178455604051919092169283917f8be0079c531659141344cd1fd0a4f28419497f9722a3daafe3b4186f6b6457e09190a35050565b6000546001600160a01b03163314620005b55760405162461bcd60e51b815260206004820181905260248201527f4f776e61626c653a2063616c6c6572206973206e6f7420746865206f776e65726044820152606401620000cf565b6001600160a01b0381166200061c5760405162461bcd60e51b815260206004820152602660248201527f4f776e61626c653a206e6577206f776e657220697320746865207a65726f206160448201526564647265737360d01b6064820152608401620000cf565b620006278162000509565b50565b600080600080600080600080610100898b0312156200064857600080fd5b88516001600160a01b03811681146200066057600080fd5b809850506020890151965060408901519550606089015194506080890151935060a0890151925060c0890151915060e089015190509295985092959890939650565b634e487b7160e01b600052601260045260246000fd5b600082620006ca57620006ca620006a2565b500490565b600082620006e157620006e1620006a2565b500690565b6000828210156200070757634e487b7160e01b600052601160045260246000fd5b500390565b60805160a05160c05160e05161010051610120516101405161387d620007c2600039600081816103cd0152610bd101526000818161067c01528181610a9d0152818161101601526114f9015260008181610420015281816114b90152818161177c0152611977015260008181610555015281816119b2015281816122fc015261239e01526000818161063401526108a801526000818161031d015261091f015260008181610453015261094c015261387d6000f3fe6080604052600436106101ba5760003560e01c80638da5cb5b116100ec578063c8b342ab1161008a578063d30d155511610064578063d30d155514610658578063db2e1eed1461066d578063e4515344146106a0578063f2fde38b146106cd57610258565b8063c8b342ab146105d8578063c8feb1fd14610605578063cba9794a1461062557610258565b8063a4d0a17e116100c6578063a4d0a17e14610579578063ab72bf321461058e578063ac68a748146105a3578063b5f5d245146105c357610258565b80638da5cb5b146104fb578063915ac47214610526578063953c51941461054657610258565b8063379607f5116101595780635fa38280116101335780635fa3828014610477578063715018a6146104bc5780637bea1a0a146104d15780638c3b0ca8146104e657610258565b8063379607f5146103f15780633aa2aaa014610411578063553fc5741461044457610258565b80631998aeef116101955780631998aeef146103725780631af379711461037a578063283149441461039c578063335b115e146103be57610258565b8062ae3bf8146102ec5780631022eccb1461030e5780631865c57d1461035057610258565b366102585760405162461bcd60e51b815260206004820152604260248201527f41756374696f6e526166666c653a20636f6e747261637420616363657074732060448201527f6574686572207472616e7366657273206f6e6c7920627920626964206d65746860648201527f6f64000000000000000000000000000000000000000000000000000000000000608482015260a4015b60405180910390fd5b60405162461bcd60e51b815260206004820152604260248201527f41756374696f6e526166666c653a20636f6e747261637420616363657074732060448201527f6574686572207472616e7366657273206f6e6c7920627920626964206d65746860648201527f6f64000000000000000000000000000000000000000000000000000000000000608482015260a40161024f565b3480156102f857600080fd5b5061030c61030736600461330f565b6106ed565b005b34801561031a57600080fd5b507f00000000000000000000000000000000000000000000000000000000000000005b6040519081526020015b60405180910390f35b34801561035c57600080fd5b506103656108a4565b6040516103479190613374565b61030c61097d565b34801561038657600080fd5b5061038f610cdd565b604051610347919061338e565b3480156103a857600080fd5b506103b1610d35565b6040516103479190613433565b3480156103ca57600080fd5b507f000000000000000000000000000000000000000000000000000000000000000061033d565b3480156103fd57600080fd5b5061030c61040c366004613475565b610df2565b34801561041d57600080fd5b507f000000000000000000000000000000000000000000000000000000000000000061033d565b34801561045057600080fd5b507f000000000000000000000000000000000000000000000000000000000000000061033d565b34801561048357600080fd5b50610497610492366004613475565b61110a565b60405173ffffffffffffffffffffffffffffffffffffffff9091168152602001610347565b3480156104c857600080fd5b5061030c6111a8565b3480156104dd57600080fd5b5061038f61121b565b3480156104f257600080fd5b5061030c611271565b34801561050757600080fd5b5060005473ffffffffffffffffffffffffffffffffffffffff16610497565b34801561053257600080fd5b5061030c6105413660046134bd565b611591565b34801561055257600080fd5b507f000000000000000000000000000000000000000000000000000000000000000061033d565b34801561058557600080fd5b5061030c611848565b34801561059a57600080fd5b5061033d611a7f565b3480156105af57600080fd5b5061030c6105be366004613475565b611a95565b3480156105cf57600080fd5b5061038f611d88565b3480156105e457600080fd5b506105f86105f336600461330f565b611dde565b6040516103479190613599565b34801561061157600080fd5b506105f8610620366004613475565b611ee9565b34801561063157600080fd5b507f000000000000000000000000000000000000000000000000000000000000000061033d565b34801561066457600080fd5b5061030c611f5f565b34801561067957600080fd5b507f000000000000000000000000000000000000000000000000000000000000000061033d565b3480156106ac57600080fd5b506106c06106bb366004613475565b6120ba565b60405161034791906135a7565b3480156106d957600080fd5b5061030c6106e836600461330f565b612172565b60005473ffffffffffffffffffffffffffffffffffffffff1633146107545760405162461bcd60e51b815260206004820181905260248201527f4f776e61626c653a2063616c6c6572206973206e6f7420746865206f776e6572604482015260640161024f565b6040517f70a08231000000000000000000000000000000000000000000000000000000008152306004820152819060009073ffffffffffffffffffffffffffffffffffffffff8316906370a0823190602401602060405180830381865afa1580156107c3573d6000803e3d6000fd5b505050506040513d601f19601f820116820180604052508101906107e791906135b5565b90506000811161085f5760405162461bcd60e51b815260206004820152602a60248201527f41756374696f6e526166666c653a206e6f20746f6b656e7320666f722067697660448201527f656e206164647265737300000000000000000000000000000000000000000000606482015260840161024f565b61089f61088160005473ffffffffffffffffffffffffffffffffffffffff1690565b73ffffffffffffffffffffffffffffffffffffffff8416908361226b565b505050565b60007f000000000000000000000000000000000000000000000000000000000000000042106108d35750600590565b600260075460ff1660028111156108ec576108ec613345565b14156108f85750600490565b600160075460ff16600281111561091157610911613345565b141561091d5750600390565b7f0000000000000000000000000000000000000000000000000000000000000000421061094a5750600290565b7f000000000000000000000000000000000000000000000000000000000000000042106109775750600190565b50600090565b3332146109f25760405162461bcd60e51b815260206004820152603260248201527f41756374696f6e526166666c653a20696e7465726e616c207472616e7361637460448201527f696f6e732061726520666f7262696464656e0000000000000000000000000000606482015260840161024f565b6001806109fd6108a4565b6005811115610a0e57610a0e613345565b14610a815760405162461bcd60e51b815260206004820152602260248201527f41756374696f6e526166666c653a20697320696e20696e76616c69642073746160448201527f7465000000000000000000000000000000000000000000000000000000000000606482015260840161024f565b33600090815260016020819052604090912090810154610bcf577f0000000000000000000000000000000000000000000000000000000000000000341015610b315760405162461bcd60e51b815260206004820152603060248201527f41756374696f6e526166666c653a2062696420616d6f756e742069732062656c60448201527f6f77207265736572766520707269636500000000000000000000000000000000606482015260840161024f565b34600182015560038054906000610b47836135fd565b90915550808255600090815260026020526040812080547fffffffffffffffffffffffff0000000000000000000000000000000000000000163317905581546008805460018181018355919093527ff3f7a9fe364faab93b216da50a3214154f22a0a2b415b23a84c8169e8b636ee390920155815490820154610bca91906122f8565b610c93565b7f0000000000000000000000000000000000000000000000000000000000000000341015610c645760405162461bcd60e51b8152602060048201526024808201527f41756374696f6e526166666c653a2062696420696e6372656d656e7420746f6f60448201527f206c6f7700000000000000000000000000000000000000000000000000000000606482015260840161024f565b6001810180549034906000610c798385613636565b909155505081546001830154610c919190839061239a565b505b805460018201546040805133815260208101939093528201527f87f5b2fe112bf269d30fb8ca9dc0bde0afd0cc39258e13fafd75fe794795bf0e9060600160405180910390a15050565b60606008805480602002602001604051908101604052809291908181526020018280548015610d2b57602002820191906000526020600020905b815481526020019060010190808311610d17575b5050505050905090565b60606000610d41611a7f565b905060008167ffffffffffffffff811115610d5e57610d5e61348e565b604051908082528060200260200182016040528015610d9757816020015b610d8461326a565b815260200190600190039081610d7c5790505b50905060015b828111610deb576000610daf826120ba565b90508083610dbe60018561364e565b81518110610dce57610dce613665565b60200260200101819052505080610de4906135fd565b9050610d9d565b5092915050565b600480610dfd6108a4565b6005811115610e0e57610e0e613345565b14610e815760405162461bcd60e51b815260206004820152602260248201527f41756374696f6e526166666c653a20697320696e20696e76616c69642073746160448201527f7465000000000000000000000000000000000000000000000000000000000000606482015260840161024f565b6000610e8c8361110a565b73ffffffffffffffffffffffffffffffffffffffff81166000908152600160205260409020600281015491925090610100900460ff1615610f355760405162461bcd60e51b815260206004820152602e60248201527f41756374696f6e526166666c653a2066756e6473206861766520616c7265616460448201527f79206265656e20636c61696d6564000000000000000000000000000000000000606482015260840161024f565b60028082015460ff166003811115610f4f57610f4f613345565b1415610fc35760405162461bcd60e51b815260206004820152603160248201527f41756374696f6e526166666c653a2061756374696f6e2077696e6e657273206360448201527f616e6e6f7420636c61696d2066756e6473000000000000000000000000000000606482015260840161024f565b6002810180547fffffffffffffffffffffffffffffffffffffffffffffffffffffffffffff00ff1661010017905560006003600283015460ff16600381111561100e5761100e613345565b141561104b577f00000000000000000000000000000000000000000000000000000000000000008260010154611044919061364e565b90506110b8565b6001600283015460ff16600381111561106657611066613345565b1415611077575060018101546110b8565b6000600283015460ff16600381111561109257611092613345565b14156110b8576064826001015460626110ab9190613694565b6110b59190613700565b90505b80156111035760405173ffffffffffffffffffffffffffffffffffffffff84169082156108fc029083906000818181858888f19350505050158015611101573d6000803e3d6000fd5b505b5050505050565b60008181526002602052604081205473ffffffffffffffffffffffffffffffffffffffff16806111a25760405162461bcd60e51b815260206004820152603260248201527f41756374696f6e526166666c653a20626964646572207769746820676976656e60448201527f20494420646f6573206e6f742065786973740000000000000000000000000000606482015260840161024f565b92915050565b60005473ffffffffffffffffffffffffffffffffffffffff16331461120f5760405162461bcd60e51b815260206004820181905260248201527f4f776e61626c653a2063616c6c6572206973206e6f7420746865206f776e6572604482015260640161024f565b611219600061243e565b565b60606009805480602002602001604051908101604052809291908181526020018280548015610d2b5760200282019190600052602060002090815481526020019060010190808311610d17575050505050905090565b60005473ffffffffffffffffffffffffffffffffffffffff1633146112d85760405162461bcd60e51b815260206004820181905260248201527f4f776e61626c653a2063616c6c6572206973206e6f7420746865206f776e6572604482015260640161024f565b6004806112e36108a4565b60058111156112f4576112f4613345565b146113675760405162461bcd60e51b815260206004820152602260248201527f41756374696f6e526166666c653a20697320696e20696e76616c69642073746160448201527f7465000000000000000000000000000000000000000000000000000000000000606482015260840161024f565b600b5460ff16156113e05760405162461bcd60e51b815260206004820152603160248201527f41756374696f6e526166666c653a2070726f6365656473206861766520616c7260448201527f65616479206265656e20636c61696d6564000000000000000000000000000000606482015260840161024f565b600b80547fffffffffffffffffffffffffffffffffffffffffffffffffffffffffffffff001660011790556000611415611a7f565b905080611420575050565b600954600090815b818110156114af576000600260006009848154811061144957611449613665565b6000918252602080832090910154835282810193909352604091820181205473ffffffffffffffffffffffffffffffffffffffff168082526001938490529190209091015490915061149b9085613636565b935050806114a8906135fd565b9050611428565b5060006114dd60017f000000000000000000000000000000000000000000000000000000000000000061364e565b90508084116114f4576114f160018561364e565b90505b61151e7f000000000000000000000000000000000000000000000000000000000000000082613694565b6115289084613636565b925061154960005473ffffffffffffffffffffffffffffffffffffffff1690565b73ffffffffffffffffffffffffffffffffffffffff166108fc849081150290604051600060405180830381858888f19350505050158015611101573d6000803e3d6000fd5b50565b60005473ffffffffffffffffffffffffffffffffffffffff1633146115f85760405162461bcd60e51b815260206004820181905260248201527f4f776e61626c653a2063616c6c6572206973206e6f7420746865206f776e6572604482015260640161024f565b6003806116036108a4565b600581111561161457611614613345565b146116875760405162461bcd60e51b815260206004820152602260248201527f41756374696f6e526166666c653a20697320696e20696e76616c69642073746160448201527f7465000000000000000000000000000000000000000000000000000000000000606482015260840161024f565b60008251116116fe5760405162461bcd60e51b815260206004820152603e60248201527f41756374696f6e526166666c653a207468657265206d7573742062652061742060448201527f6c65617374206f6e652072616e646f6d206e756d626572207061737365640000606482015260840161024f565b600780547fffffffffffffffffffffffffffffffffffffffffffffffffffffffffffffff001660021790556008548061173657505050565b61175a818460008151811061174d5761174d613665565b60200260200101516124b3565b8460008151811061176d5761176d613665565b602090810291909101015290507f0000000000000000000000000000000000000000000000000000000000000000808210156117b2576117ac82612512565b50505050565b6117bf6020610100613700565b6117c99082613700565b84511461183e5760405162461bcd60e51b815260206004820152603860248201527f41756374696f6e526166666c653a2070617373656420696e636f72726563742060448201527f6e756d626572206f662072616e646f6d206e756d626572730000000000000000606482015260840161024f565b6117ac8285612566565b60005473ffffffffffffffffffffffffffffffffffffffff1633146118af5760405162461bcd60e51b815260206004820181905260248201527f4f776e61626c653a2063616c6c6572206973206e6f7420746865206f776e6572604482015260640161024f565b6002806118ba6108a4565b60058111156118cb576118cb613345565b1461193e5760405162461bcd60e51b815260206004820152602260248201527f41756374696f6e526166666c653a20697320696e20696e76616c69642073746160448201527f7465000000000000000000000000000000000000000000000000000000000000606482015260840161024f565b600780547fffffffffffffffffffffffffffffffffffffffffffffffffffffffffffffff001660011790556000611973611a7f565b90507f00000000000000000000000000000000000000000000000000000000000000008082116119a257505050565b60006119ae828461364e565b90507f0000000000000000000000000000000000000000000000000000000000000000808210156119dc5750805b60005b81811015611a295760006119f360046125f2565b90506000611a0082612859565b9050611a0b8161286c565b611a16600d826128e3565b505080611a22906135fd565b90506119df565b50611a366004600061329f565b60056000905560066000905560005b81811015611101576000611a59600d6125f2565b9050611a6e611a6960018361364e565b612904565b50611a78816135fd565b9050611a45565b60006001600354611a90919061364e565b905090565b60005473ffffffffffffffffffffffffffffffffffffffff163314611afc5760405162461bcd60e51b815260206004820181905260248201527f4f776e61626c653a2063616c6c6572206973206e6f7420746865206f776e6572604482015260640161024f565b600480611b076108a4565b6005811115611b1857611b18613345565b14611b8b5760405162461bcd60e51b815260206004820152602260248201527f41756374696f6e526166666c653a20697320696e20696e76616c69642073746160448201527f7465000000000000000000000000000000000000000000000000000000000000606482015260840161024f565b600c5460085480611c045760405162461bcd60e51b815260206004820152602960248201527f41756374696f6e526166666c653a20746865726520617265206e6f206665657360448201527f20746f20636c61696d0000000000000000000000000000000000000000000000606482015260840161024f565b808210611c795760405162461bcd60e51b815260206004820152602d60248201527f41756374696f6e526166666c653a2066656573206861766520616c726561647960448201527f206265656e20636c61696d656400000000000000000000000000000000000000606482015260840161024f565b6000611c858584613636565b905081811115611c925750805b6000835b82811015611d33576000611cc660088381548110611cb657611cb6613665565b906000526020600020015461110a565b73ffffffffffffffffffffffffffffffffffffffff8116600090815260016020819052604090912001549091506064611d00826062613694565b611d0a9190613700565b611d14908261364e565b611d1e9085613636565b9350505080611d2c906135fd565b9050611c96565b50600c8290556000805460405173ffffffffffffffffffffffffffffffffffffffff9091169183156108fc02918491818181858888f19350505050158015611d7f573d6000803e3d6000fd5b50505050505050565b6060600a805480602002602001604051908101604052809291908181526020018280548015610d2b5760200282019190600052602060002090815481526020019060010190808311610d17575050505050905090565b611de66132bd565b73ffffffffffffffffffffffffffffffffffffffff821660009081526001602052604090208054611e7f5760405162461bcd60e51b815260206004820152602660248201527f41756374696f6e526166666c653a206e6f2062696420627920676976656e206160448201527f6464726573730000000000000000000000000000000000000000000000000000606482015260840161024f565b6040805160808101825282548152600183015460208201526002830154909183919083019060ff166003811115611eb857611eb8613345565b6003811115611ec957611ec9613345565b815260029190910154610100900460ff1615156020909101529392505050565b611ef16132bd565b6000611efc8361110a565b73ffffffffffffffffffffffffffffffffffffffff8116600090815260016020818152604092839020835160808101855281548152928101549183019190915260028101549394509092909183019060ff166003811115611eb857611eb8613345565b60005473ffffffffffffffffffffffffffffffffffffffff163314611fc65760405162461bcd60e51b815260206004820181905260248201527f4f776e61626c653a2063616c6c6572206973206e6f7420746865206f776e6572604482015260640161024f565b600580611fd16108a4565b6005811115611fe257611fe2613345565b146120555760405162461bcd60e51b815260206004820152602260248201527f41756374696f6e526166666c653a20697320696e20696e76616c69642073746160448201527f7465000000000000000000000000000000000000000000000000000000000000606482015260840161024f565b4761207560005473ffffffffffffffffffffffffffffffffffffffff1690565b73ffffffffffffffffffffffffffffffffffffffff166108fc829081150290604051600060405180830381858888f1935050505015801561089f573d6000803e3d6000fd5b6120c261326a565b60006120cd8361110a565b73ffffffffffffffffffffffffffffffffffffffff811660008181526001602081815260408084208151808301835295865281516080810183528154815293810154848401526002810154969750959394939184019291869183019060ff16600381111561213d5761213d613345565b600381111561214e5761214e613345565b815260029190910154610100900460ff161515602090910152905295945050505050565b60005473ffffffffffffffffffffffffffffffffffffffff1633146121d95760405162461bcd60e51b815260206004820181905260248201527f4f776e61626c653a2063616c6c6572206973206e6f7420746865206f776e6572604482015260640161024f565b73ffffffffffffffffffffffffffffffffffffffff81166122625760405162461bcd60e51b815260206004820152602660248201527f4f776e61626c653a206e6577206f776e657220697320746865207a65726f206160448201527f6464726573730000000000000000000000000000000000000000000000000000606482015260840161024f565b61158e8161243e565b6040805173ffffffffffffffffffffffffffffffffffffffff8416602482015260448082018490528251808303909101815260649091019091526020810180517bffffffffffffffffffffffffffffffffffffffffffffffffffffffff167fa9059cbb0000000000000000000000000000000000000000000000000000000017905261089f9084906129ee565b60007f0000000000000000000000000000000000000000000000000000000000000000612323611a7f565b11905060006123328484612ae0565b60065490915082156123655780821161234c575050505050565b61235860048284612afe565b612360612b17565b611103565b6123706004836128e3565b808211612392576004546123869060019061364e565b60055550600655505050565b611103612b17565b60007f00000000000000000000000000000000000000000000000000000000000000006123c5611a7f565b1015905060006123d58584612ae0565b6006549091508082118380156123e9575080155b156123f75750505050505050565b60006124038888612ae0565b90508281118015906124325760055461241f9060049087612b29565b612427612b17565b505050505050505050565b61242760048387612afe565b6000805473ffffffffffffffffffffffffffffffffffffffff8381167fffffffffffffffffffffffff0000000000000000000000000000000000000000831681178455604051919092169283917f8be0079c531659141344cd1fd0a4f28419497f9722a3daafe3b4186f6b6457e09190a35050565b60008060006124c28585612be4565b90506000600882815481106124d9576124d9613665565b906000526020600020015490506124ef81612bff565b6124f882612904565b61250360018761364e565b9660209590951c955050505050565b60005b818110156125595760006008828154811061253257612532613665565b9060005260206000200154905061254881612c6e565b50612552816135fd565b9050612515565b5061158e6008600061329f565b6125a5828260008151811061257d5761257d613665565b6020026020010151600160206101006125969190613700565b6125a0919061364e565b612cde565b915060015b815181101561089f576125e0838383815181106125c9576125c9613665565b602002602001015160206101006125a09190613700565b92506125eb816135fd565b90506125aa565b80546000906126695760405162461bcd60e51b815260206004820152603260248201527f4d6178486561703a2063616e6e6f742072656d6f7665206d617820656c656d6560448201527f6e742066726f6d20656d70747920686561700000000000000000000000000000606482015260840161024f565b8160008154811061267c5761267c613665565b90600052602060002001549050816001838054905061269b919061364e565b815481106126ab576126ab613665565b9060005260206000200154826000815481106126c9576126c9613665565b9060005260206000200181905550818054806126e7576126e7613714565b6001900381819060005260206000200160009055905560005b600061270b82612d5c565b9050600061271883612d74565b8554909150839083108015612764575085848154811061273a5761273a613665565b906000526020600020015486848154811061275757612757613665565b9060005260206000200154115b1561276c5750815b8554821080156127b3575085818154811061278957612789613665565b90600052602060002001548683815481106127a6576127a6613665565b9060005260206000200154115b156127bb5750805b838114156127cb57505050612853565b8581815481106127dd576127dd613665565b90600052602060002001548685815481106127fa576127fa613665565b906000526020600020015487868154811061281757612817613665565b90600052602060002001600089858154811061283557612835613665565b60009182526020909120019290925591909155509250612700915050565b50919050565b60006111a263ffffffff8381169061364e565b612877816002612d8c565b600980546001810182556000919091527f6e1540171b6c0c960b71a7020d9f60077f6af931a8bbf590da0223dacf75c7af018190556040518181527f7595f3fd584af50df83ccb184a9c80f0e5abff0b8c2798b989a878d4840d9beb906020015b60405180910390a150565b8154600181018355600083815260209020810182905561089f838284612e0c565b60085480821061297c5760405162461bcd60e51b815260206004820152602f60248201527f41756374696f6e526166666c653a20696e76616c696420726166666c6520706160448201527f727469636970616e7420696e6465780000000000000000000000000000000000606482015260840161024f565b600861298960018361364e565b8154811061299957612999613665565b9060005260206000200154600883815481106129b7576129b7613665565b60009182526020909120015560088054806129d4576129d4613714565b600190038181906000526020600020016000905590555050565b6000612a50826040518060400160405280602081526020017f5361666545524332303a206c6f772d6c6576656c2063616c6c206661696c65648152508573ffffffffffffffffffffffffffffffffffffffff16612ee29092919063ffffffff16565b80519091501561089f5780806020019051810190612a6e9190613743565b61089f5760405162461bcd60e51b815260206004820152602a60248201527f5361666545524332303a204552433230206f7065726174696f6e20646964206e60448201527f6f74207375636365656400000000000000000000000000000000000000000000606482015260840161024f565b6000612af08363ffffffff61364e565b602083901b17905092915050565b6000612b0a8484612ef1565b90506117ac848284612b29565b612b216004612fa8565b600655600555565b828281548110612b3b57612b3b613665565b90600052602060002001548111612bba5760405162461bcd60e51b815260206004820152603060248201527f4d6178486561703a206e65772076616c7565206d75737420626520626967676560448201527f72207468616e206f6c642076616c756500000000000000000000000000000000606482015260840161024f565b80838381548110612bcd57612bcd613665565b60009182526020909120015561089f838383612e0c565b600063ffffffff8216612bf78482613765565b949350505050565b612c0a816001612d8c565b600a80546001810182556000919091527fc65a7bb8d6351c1cf70c95a316cc6a92839c986682d98bc35f958f4883f9d2a8018190556040518181527e8923b8adac05258abf40b3e936d1a95d3c63fa197d9ded7f853d8f7dcbc5a3906020016128d8565b612c79816003612d8c565b600a80546001810182556000919091527fc65a7bb8d6351c1cf70c95a316cc6a92839c986682d98bc35f958f4883f9d2a8018190556040518181527fa201aedcbcadeeae47194e16fa8156404ec2c7060dec4bc5fe06b161a31bcb56906020016128d8565b6000805b82811015612d50576000612cf68686612be4565b9050600060088281548110612d0d57612d0d613665565b90600052602060002001549050612d2381612c6e565b612d2c82612904565b612d3587613779565b9650505060209390931c92612d49816135fd565b9050612ce2565b508390505b9392505050565b6000612d69826002613694565b6111a2906001613636565b6000612d81826002613694565b6111a2906002613636565b6000612d978361110a565b73ffffffffffffffffffffffffffffffffffffffff811660009081526001602081905260409091206002018054929350849290917fffffffffffffffffffffffffffffffffffffffffffffffffffffffffffffff0090911690836003811115612e0257612e02613345565b0217905550505050565b600082118015612e5b5750828281548110612e2957612e29613665565b906000526020600020015483612e3e846130b6565b81548110612e4e57612e4e613665565b9060005260206000200154105b1561089f578083612e6b846130b6565b81548110612e7b57612e7b613665565b906000526020600020015484612e90856130b6565b81548110612ea057612ea0613665565b906000526020600020016000868681548110612ebe57612ebe613665565b6000918252602090912001929092559190915550612edb826130b6565b9150612e0c565b6060612bf784846000856130cf565b6000805b8354811015612f395782848281548110612f1157612f11613665565b90600052602060002001541415612f295790506111a2565b612f32816135fd565b9050612ef5565b5060405162461bcd60e51b815260206004820152602760248201527f4d6178486561703a206b6579207769746820676976656e2076616c7565206e6f60448201527f7420666f756e6400000000000000000000000000000000000000000000000000606482015260840161024f565b80546000908190806130225760405162461bcd60e51b815260206004820152603260248201527f4d6178486561703a2063616e6e6f742066696e64206d696e696d756d20656c6560448201527f6d656e74206f6e20656d70747920686561700000000000000000000000000000606482015260840161024f565b600061302f600283613700565b905084818154811061304357613043613665565b9060005260206000200154925080935060008160016130629190613636565b90505b828110156130ae57600086828154811061308157613081613665565b906000526020600020015490508481101561309d578094508195505b506130a7816135fd565b9050613065565b505050915091565b600060026130c560018461364e565b6111a29190613700565b6060824710156131475760405162461bcd60e51b815260206004820152602660248201527f416464726573733a20696e73756666696369656e742062616c616e636520666f60448201527f722063616c6c0000000000000000000000000000000000000000000000000000606482015260840161024f565b73ffffffffffffffffffffffffffffffffffffffff85163b6131ab5760405162461bcd60e51b815260206004820152601d60248201527f416464726573733a2063616c6c20746f206e6f6e2d636f6e7472616374000000604482015260640161024f565b6000808673ffffffffffffffffffffffffffffffffffffffff1685876040516131d491906137da565b60006040518083038185875af1925050503d8060008114613211576040519150601f19603f3d011682016040523d82523d6000602084013e613216565b606091505b5091509150613226828286613231565b979650505050505050565b60608315613240575081612d55565b8251156132505782518084602001fd5b8160405162461bcd60e51b815260040161024f91906137f6565b6040518060400160405280600073ffffffffffffffffffffffffffffffffffffffff16815260200161329a6132bd565b905290565b508054600082559060005260206000209081019061158e91906132f6565b60405180608001604052806000815260200160008152602001600060038111156132e9576132e9613345565b8152600060209091015290565b5b8082111561330b57600081556001016132f7565b5090565b60006020828403121561332157600080fd5b813573ffffffffffffffffffffffffffffffffffffffff81168114612d5557600080fd5b7f4e487b7100000000000000000000000000000000000000000000000000000000600052602160045260246000fd5b602081016006831061338857613388613345565b91905290565b6020808252825182820181905260009190848201906040850190845b818110156133c6578351835292840192918401916001016133aa565b50909695505050505050565b80518252602081015160208301526040810151600481106133f5576133f5613345565b60408301526060908101511515910152565b73ffffffffffffffffffffffffffffffffffffffff8151168252602081015161089f60208401826133d2565b6020808252825182820181905260009190848201906040850190845b818110156133c657613462838551613407565b9284019260a0929092019160010161344f565b60006020828403121561348757600080fd5b5035919050565b7f4e487b7100000000000000000000000000000000000000000000000000000000600052604160045260246000fd5b600060208083850312156134d057600080fd5b823567ffffffffffffffff808211156134e857600080fd5b818501915085601f8301126134fc57600080fd5b81358181111561350e5761350e61348e565b8060051b6040517fffffffffffffffffffffffffffffffffffffffffffffffffffffffffffffffe0603f830116810181811085821117156135515761355161348e565b60405291825284820192508381018501918883111561356f57600080fd5b938501935b8285101561358d57843584529385019392850192613574565b98975050505050505050565b608081016111a282846133d2565b60a081016111a28284613407565b6000602082840312156135c757600080fd5b5051919050565b7f4e487b7100000000000000000000000000000000000000000000000000000000600052601160045260246000fd5b60007fffffffffffffffffffffffffffffffffffffffffffffffffffffffffffffffff82141561362f5761362f6135ce565b5060010190565b60008219821115613649576136496135ce565b500190565b600082821015613660576136606135ce565b500390565b7f4e487b7100000000000000000000000000000000000000000000000000000000600052603260045260246000fd5b6000817fffffffffffffffffffffffffffffffffffffffffffffffffffffffffffffffff04831182151516156136cc576136cc6135ce565b500290565b7f4e487b7100000000000000000000000000000000000000000000000000000000600052601260045260246000fd5b60008261370f5761370f6136d1565b500490565b7f4e487b7100000000000000000000000000000000000000000000000000000000600052603160045260246000fd5b60006020828403121561375557600080fd5b81518015158114612d5557600080fd5b600082613774576137746136d1565b500690565b600081613788576137886135ce565b507fffffffffffffffffffffffffffffffffffffffffffffffffffffffffffffffff0190565b60005b838110156137c95781810151838201526020016137b1565b838111156117ac5750506000910152565b600082516137ec8184602087016137ae565b9190910192915050565b60208152600082518060208401526138158160408501602087016137ae565b601f017fffffffffffffffffffffffffffffffffffffffffffffffffffffffffffffffe016919091016040019291505056fea2646970667358221220ac0de2fa450ebb7ae3c0dae2f035506b26dbb010a2e13ac6630c9550be69582164736f6c634300080a0033"
}